{
  "contractName": "ERC725Y",
  "abi": [
    {
      "inputs": [
        {
          "internalType": "address",
          "name": "newOwner",
          "type": "address"
        }
      ],
      "stateMutability": "nonpayable",
      "type": "constructor"
    },
    {
      "anonymous": false,
      "inputs": [
        {
          "indexed": true,
          "internalType": "bytes32",
          "name": "dataKey",
          "type": "bytes32"
        }
      ],
      "name": "DataChanged",
      "type": "event"
    },
    {
      "anonymous": false,
      "inputs": [
        {
          "indexed": true,
          "internalType": "address",
          "name": "previousOwner",
          "type": "address"
        },
        {
          "indexed": true,
          "internalType": "address",
          "name": "newOwner",
          "type": "address"
        }
      ],
      "name": "OwnershipTransferred",
      "type": "event"
    },
    {
      "inputs": [
        {
          "internalType": "bytes32[]",
          "name": "dataKeys",
          "type": "bytes32[]"
        }
      ],
      "name": "getData",
      "outputs": [
        {
          "internalType": "bytes[]",
          "name": "dataValues",
          "type": "bytes[]"
        }
      ],
      "stateMutability": "view",
      "type": "function"
    },
    {
      "inputs": [
        {
          "internalType": "bytes32",
          "name": "dataKey",
          "type": "bytes32"
        }
      ],
      "name": "getData",
      "outputs": [
        {
          "internalType": "bytes",
          "name": "dataValue",
          "type": "bytes"
        }
      ],
      "stateMutability": "view",
      "type": "function"
    },
    {
      "inputs": [],
      "name": "owner",
      "outputs": [
        {
          "internalType": "address",
          "name": "",
          "type": "address"
        }
      ],
      "stateMutability": "view",
      "type": "function"
    },
    {
      "inputs": [],
      "name": "renounceOwnership",
      "outputs": [],
      "stateMutability": "nonpayable",
      "type": "function"
    },
    {
      "inputs": [
        {
          "internalType": "bytes32[]",
          "name": "dataKeys",
          "type": "bytes32[]"
        },
        {
          "internalType": "bytes[]",
          "name": "dataValues",
          "type": "bytes[]"
        }
      ],
      "name": "setData",
      "outputs": [],
      "stateMutability": "nonpayable",
      "type": "function"
    },
    {
      "inputs": [
        {
          "internalType": "bytes32",
          "name": "dataKey",
          "type": "bytes32"
        },
        {
          "internalType": "bytes",
          "name": "dataValue",
          "type": "bytes"
        }
      ],
      "name": "setData",
      "outputs": [],
      "stateMutability": "nonpayable",
      "type": "function"
    },
    {
      "inputs": [
        {
          "internalType": "bytes4",
          "name": "interfaceId",
          "type": "bytes4"
        }
      ],
      "name": "supportsInterface",
      "outputs": [
        {
          "internalType": "bool",
          "name": "",
          "type": "bool"
        }
      ],
      "stateMutability": "view",
      "type": "function"
    },
    {
      "inputs": [
        {
          "internalType": "address",
          "name": "newOwner",
          "type": "address"
        }
      ],
      "name": "transferOwnership",
      "outputs": [],
      "stateMutability": "nonpayable",
      "type": "function"
    }
  ],
  "bytecode": "0x60806040523480156200001157600080fd5b5060405162001433380380620014338339818101604052810190620000379190620001ef565b6200004d816200005460201b620004431760201c565b5062000221565b620000646200015c60201b60201c565b73ffffffffffffffffffffffffffffffffffffffff168173ffffffffffffffffffffffffffffffffffffffff1614620001595760008060009054906101000a900473ffffffffffffffffffffffffffffffffffffffff169050816000806101000a81548173ffffffffffffffffffffffffffffffffffffffff021916908373ffffffffffffffffffffffffffffffffffffffff1602179055508173ffffffffffffffffffffffffffffffffffffffff168173ffffffffffffffffffffffffffffffffffffffff167f8be0079c531659141344cd1fd0a4f28419497f9722a3daafe3b4186f6b6457e060405160405180910390a3505b50565b60008060009054906101000a900473ffffffffffffffffffffffffffffffffffffffff16905090565b600080fd5b600073ffffffffffffffffffffffffffffffffffffffff82169050919050565b6000620001b7826200018a565b9050919050565b620001c981620001aa565b8114620001d557600080fd5b50565b600081519050620001e981620001be565b92915050565b60006020828403121562000208576200020762000185565b5b60006200021884828501620001d8565b91505092915050565b61120280620002316000396000f3fe608060405234801561001057600080fd5b50600436106100885760003560e01c8063715018a61161005b578063715018a6146101395780637f23690c146101435780638da5cb5b1461015f578063f2fde38b1461017d57610088565b806301ffc9a71461008d57806314a6e293146100bd5780634e3e6e9c146100d957806354f6127f14610109575b600080fd5b6100a760048036038101906100a2919061083d565b610199565b6040516100b49190610885565b60405180910390f35b6100d760048036038101906100d29190610bc5565b6101fa565b005b6100f360048036038101906100ee9190610c3d565b6102a5565b6040516101009190610dd0565b60405180910390f35b610123600480360381019061011e9190610df2565b61035b565b6040516101309190610e69565b60405180910390f35b61014161036d565b005b61015d60048036038101906101589190610e8b565b610381565b005b610167610397565b6040516101749190610f28565b60405180910390f35b61019760048036038101906101929190610f6f565b6103c0565b005b600063714df77c60e01b7bffffffffffffffffffffffffffffffffffffffffffffffffffffffff1916827bffffffffffffffffffffffffffffffffffffffffffffffffffffffff191614806101f357506101f282610542565b5b9050919050565b6102026105ac565b8051825114610246576040517f08c379a000000000000000000000000000000000000000000000000000000000815260040161023d9061101f565b60405180910390fd5b60005b82518110156102a0576102908382815181106102685761026761103f565b5b60200260200101518383815181106102835761028261103f565b5b6020026020010151610623565b6102998161067c565b9050610249565b505050565b6060815167ffffffffffffffff8111156102c2576102c16108b6565b5b6040519080825280602002602001820160405280156102f557816020015b60608152602001906001900390816102e05790505b50905060005b82518110156103555761032783828151811061031a5761031961103f565b5b6020026020010151610689565b82828151811061033a5761033961103f565b5b602002602001018190525061034e8161067c565b90506102fb565b50919050565b606061036682610689565b9050919050565b6103756105ac565b61037f6000610443565b565b6103896105ac565b6103938282610623565b5050565b60008060009054906101000a900473ffffffffffffffffffffffffffffffffffffffff16905090565b6103c86105ac565b600073ffffffffffffffffffffffffffffffffffffffff168173ffffffffffffffffffffffffffffffffffffffff1603610437576040517f08c379a000000000000000000000000000000000000000000000000000000000815260040161042e906110e0565b60405180910390fd5b61044081610443565b50565b61044b610397565b73ffffffffffffffffffffffffffffffffffffffff168173ffffffffffffffffffffffffffffffffffffffff161461053f5760008060009054906101000a900473ffffffffffffffffffffffffffffffffffffffff169050816000806101000a81548173ffffffffffffffffffffffffffffffffffffffff021916908373ffffffffffffffffffffffffffffffffffffffff1602179055508173ffffffffffffffffffffffffffffffffffffffff168173ffffffffffffffffffffffffffffffffffffffff167f8be0079c531659141344cd1fd0a4f28419497f9722a3daafe3b4186f6b6457e060405160405180910390a3505b50565b60007f01ffc9a7000000000000000000000000000000000000000000000000000000007bffffffffffffffffffffffffffffffffffffffffffffffffffffffff1916827bffffffffffffffffffffffffffffffffffffffffffffffffffffffff1916149050919050565b3373ffffffffffffffffffffffffffffffffffffffff166105cb610397565b73ffffffffffffffffffffffffffffffffffffffff1614610621576040517f08c379a00000000000000000000000000000000000000000000000000000000081526004016106189061114c565b60405180910390fd5b565b8060016000848152602001908152602001600020908051906020019061064a92919061072e565b50817fcdf4e344c0d23d4cdd0474039d176c55b19d531070dbe17856bfb993a5b5720b60405160405180910390a25050565b6000600182019050919050565b60606001600083815260200190815260200160002080546106a99061119b565b80601f01602080910402602001604051908101604052809291908181526020018280546106d59061119b565b80156107225780601f106106f757610100808354040283529160200191610722565b820191906000526020600020905b81548152906001019060200180831161070557829003601f168201915b50505050509050919050565b82805461073a9061119b565b90600052602060002090601f01602090048101928261075c57600085556107a3565b82601f1061077557805160ff19168380011785556107a3565b828001600101855582156107a3579182015b828111156107a2578251825591602001919060010190610787565b5b5090506107b091906107b4565b5090565b5b808211156107cd5760008160009055506001016107b5565b5090565b6000604051905090565b600080fd5b600080fd5b60007fffffffff0000000000000000000000000000000000000000000000000000000082169050919050565b61081a816107e5565b811461082557600080fd5b50565b60008135905061083781610811565b92915050565b600060208284031215610853576108526107db565b5b600061086184828501610828565b91505092915050565b60008115159050919050565b61087f8161086a565b82525050565b600060208201905061089a6000830184610876565b92915050565b600080fd5b6000601f19601f8301169050919050565b7f4e487b7100000000000000000000000000000000000000000000000000000000600052604160045260246000fd5b6108ee826108a5565b810181811067ffffffffffffffff8211171561090d5761090c6108b6565b5b80604052505050565b60006109206107d1565b905061092c82826108e5565b919050565b600067ffffffffffffffff82111561094c5761094b6108b6565b5b602082029050602081019050919050565b600080fd5b6000819050919050565b61097581610962565b811461098057600080fd5b50565b6000813590506109928161096c565b92915050565b60006109ab6109a684610931565b610916565b905080838252602082019050602084028301858111156109ce576109cd61095d565b5b835b818110156109f757806109e38882610983565b8452602084019350506020810190506109d0565b5050509392505050565b600082601f830112610a1657610a156108a0565b5b8135610a26848260208601610998565b91505092915050565b600067ffffffffffffffff821115610a4a57610a496108b6565b5b602082029050602081019050919050565b600080fd5b600067ffffffffffffffff821115610a7b57610a7a6108b6565b5b610a84826108a5565b9050602081019050919050565b82818337600083830152505050565b6000610ab3610aae84610a60565b610916565b905082815260208101848484011115610acf57610ace610a5b565b5b610ada848285610a91565b509392505050565b600082601f830112610af757610af66108a0565b5b8135610b07848260208601610aa0565b91505092915050565b6000610b23610b1e84610a2f565b610916565b90508083825260208201905060208402830185811115610b4657610b4561095d565b5b835b81811015610b8d57803567ffffffffffffffff811115610b6b57610b6a6108a0565b5b808601610b788982610ae2565b85526020850194505050602081019050610b48565b5050509392505050565b600082601f830112610bac57610bab6108a0565b5b8135610bbc848260208601610b10565b91505092915050565b60008060408385031215610bdc57610bdb6107db565b5b600083013567ffffffffffffffff811115610bfa57610bf96107e0565b5b610c0685828601610a01565b925050602083013567ffffffffffffffff811115610c2757610c266107e0565b5b610c3385828601610b97565b9150509250929050565b600060208284031215610c5357610c526107db565b5b600082013567ffffffffffffffff811115610c7157610c706107e0565b5b610c7d84828501610a01565b91505092915050565b600081519050919050565b600082825260208201905092915050565b6000819050602082019050919050565b600081519050919050565b600082825260208201905092915050565b60005b83811015610cec578082015181840152602081019050610cd1565b83811115610cfb576000848401525b50505050565b6000610d0c82610cb2565b610d168185610cbd565b9350610d26818560208601610cce565b610d2f816108a5565b840191505092915050565b6000610d468383610d01565b905092915050565b6000602082019050919050565b6000610d6682610c86565b610d708185610c91565b935083602082028501610d8285610ca2565b8060005b85811015610dbe5784840389528151610d9f8582610d3a565b9450610daa83610d4e565b925060208a01995050600181019050610d86565b50829750879550505050505092915050565b60006020820190508181036000830152610dea8184610d5b565b905092915050565b600060208284031215610e0857610e076107db565b5b6000610e1684828501610983565b91505092915050565b600082825260208201905092915050565b6000610e3b82610cb2565b610e458185610e1f565b9350610e55818560208601610cce565b610e5e816108a5565b840191505092915050565b60006020820190508181036000830152610e838184610e30565b905092915050565b60008060408385031215610ea257610ea16107db565b5b6000610eb085828601610983565b925050602083013567ffffffffffffffff811115610ed157610ed06107e0565b5b610edd85828601610ae2565b9150509250929050565b600073ffffffffffffffffffffffffffffffffffffffff82169050919050565b6000610f1282610ee7565b9050919050565b610f2281610f07565b82525050565b6000602082019050610f3d6000830184610f19565b92915050565b610f4c81610f07565b8114610f5757600080fd5b50565b600081359050610f6981610f43565b92915050565b600060208284031215610f8557610f846107db565b5b6000610f9384828501610f5a565b91505092915050565b600082825260208201905092915050565b7f4b657973206c656e677468206e6f7420657175616c20746f2076616c7565732060008201527f6c656e6774680000000000000000000000000000000000000000000000000000602082015250565b6000611009602683610f9c565b915061101482610fad565b604082019050919050565b6000602082019050818103600083015261103881610ffc565b9050919050565b7f4e487b7100000000000000000000000000000000000000000000000000000000600052603260045260246000fd5b7f4f776e61626c653a206e6577206f776e657220697320746865207a65726f206160008201527f6464726573730000000000000000000000000000000000000000000000000000602082015250565b60006110ca602683610f9c565b91506110d58261106e565b604082019050919050565b600060208201905081810360008301526110f9816110bd565b9050919050565b7f4f776e61626c653a2063616c6c6572206973206e6f7420746865206f776e6572600082015250565b6000611136602083610f9c565b915061114182611100565b602082019050919050565b6000602082019050818103600083015261116581611129565b9050919050565b7f4e487b7100000000000000000000000000000000000000000000000000000000600052602260045260246000fd5b600060028204905060018216806111b357607f821691505b6020821081036111c6576111c561116c565b5b5091905056fea264697066735822122089f5f21cdd3379346e826817acb6022229a540a09e7246774d25938322fedc8564736f6c634300080d0033",
  "immutableReferences": {},
  "source": "// SPDX-License-Identifier: Apache-2.0\npragma solidity ^0.8.0;\n\n// modules\nimport {ERC165} from \"@openzeppelin/contracts/utils/introspection/ERC165.sol\";\nimport {OwnableUnset} from \"./custom/OwnableUnset.sol\";\nimport {ERC725YCore} from \"./ERC725YCore.sol\";\n\n/**\n * @title ERC725Y General data key/value store\n * @author Fabian Vogelsteller <fabian@lukso.network>\n * @dev Contract module which provides the ability to set arbitrary data key/value pairs that can be changed over time\n * It is intended to standardise certain data key/value pairs to allow automated read and writes\n * from/to the contract storage\n */\ncontract ERC725Y is ERC725YCore {\n    /**\n     * @notice Sets the owner of the contract\n     * @param newOwner the owner of the contract\n     */\n    constructor(address newOwner) {\n        OwnableUnset._setOwner(newOwner);\n    }\n}\n",
  "sourcePath": "@erc725/smart-contracts/contracts/ERC725Y.sol",
  "compiler": {
    "name": "solc",
    "version": "0.8.13+commit.abaa5c0e.Emscripten.clang"
  },
  "schemaVersion": "3.4.1",
  "updatedAt": "2022-08-28T10:41:49.347Z",
  "devdoc": {
    "author": "Fabian Vogelsteller <fabian@lukso.network>",
    "details": "Contract module which provides the ability to set arbitrary data key/value pairs that can be changed over time It is intended to standardise certain data key/value pairs to allow automated read and writes from/to the contract storage",
    "kind": "dev",
    "methods": {
      "constructor": {
        "params": {
          "newOwner": "the owner of the contract"
        }
      },
      "getData(bytes32)": {
        "params": {
          "dataKey": "The key which value to retrieve"
        },
        "returns": {
          "dataValue": "The data stored at the key"
        }
      },
      "getData(bytes32[])": {
        "params": {
          "dataKeys": "The array of keys which values to retrieve"
        },
        "returns": {
          "dataValues": "The array of data stored at multiple keys"
        }
      },
      "owner()": {
        "details": "Returns the address of the current owner."
      },
      "renounceOwnership()": {
        "details": "Leaves the contract without owner. It will not be possible to call `onlyOwner` functions anymore. Can only be called by the current owner. NOTE: Renouncing ownership will leave the contract without an owner, thereby removing any functionality that is only available to the owner."
      },
      "setData(bytes32,bytes)": {
        "params": {
          "dataKey": "The key to retrieve stored value",
          "dataValue": "The value to set SHOULD only be callable by the owner of the contract set via ERC173 Emits a {DataChanged} event."
        }
      },
      "setData(bytes32[],bytes[])": {
        "details": "Sets array of data for multiple given `dataKeys` SHOULD only be callable by the owner of the contract set via ERC173 Emits a {DataChanged} event.",
        "params": {
          "dataKeys": "The array of data keys for values to set",
          "dataValues": "The array of values to set"
        }
      },
      "supportsInterface(bytes4)": {
        "details": "See {IERC165-supportsInterface}."
      },
      "transferOwnership(address)": {
        "details": "Transfers ownership of the contract to a new account (`newOwner`). Can only be called by the current owner."
      }
    },
    "title": "ERC725Y General data key/value store",
    "version": 1
  },
  "userdoc": {
    "events": {
      "DataChanged(bytes32)": {
        "notice": "Emitted when data at a key is changed"
      }
    },
    "kind": "user",
    "methods": {
      "constructor": {
        "notice": "Sets the owner of the contract"
      },
      "getData(bytes32)": {
        "notice": "Gets singular data at a given `dataKey`"
      },
      "getData(bytes32[])": {
        "notice": "Gets array of data for multiple given keys"
      },
      "setData(bytes32,bytes)": {
        "notice": "Sets singular data for a given `dataKey`"
      }
    },
    "version": 1
  }
}