{
  "contractName": "LSP7DigitalAsset",
  "abi": [
    {
      "inputs": [
        {
          "internalType": "string",
          "name": "name_",
          "type": "string"
        },
        {
          "internalType": "string",
          "name": "symbol_",
          "type": "string"
        },
        {
          "internalType": "address",
          "name": "newOwner_",
          "type": "address"
        },
        {
          "internalType": "bool",
          "name": "isNFT_",
          "type": "bool"
        }
      ],
      "stateMutability": "nonpayable",
      "type": "constructor"
    },
    {
      "inputs": [],
      "name": "LSP4TokenNameNotEditable",
      "type": "error"
    },
    {
      "inputs": [],
      "name": "LSP4TokenSymbolNotEditable",
      "type": "error"
    },
    {
      "inputs": [
        {
          "internalType": "address",
          "name": "tokenOwner",
          "type": "address"
        },
        {
          "internalType": "uint256",
          "name": "authorizedAmount",
          "type": "uint256"
        },
        {
          "internalType": "address",
          "name": "operator",
          "type": "address"
        },
        {
          "internalType": "uint256",
          "name": "amount",
          "type": "uint256"
        }
      ],
      "name": "LSP7AmountExceedsAuthorizedAmount",
      "type": "error"
    },
    {
      "inputs": [
        {
          "internalType": "uint256",
          "name": "balance",
          "type": "uint256"
        },
        {
          "internalType": "address",
          "name": "tokenOwner",
          "type": "address"
        },
        {
          "internalType": "uint256",
          "name": "amount",
          "type": "uint256"
        }
      ],
      "name": "LSP7AmountExceedsBalance",
      "type": "error"
    },
    {
      "inputs": [],
      "name": "LSP7CannotSendWithAddressZero",
      "type": "error"
    },
    {
      "inputs": [],
      "name": "LSP7CannotUseAddressZeroAsOperator",
      "type": "error"
    },
    {
      "inputs": [],
      "name": "LSP7InvalidTransferBatch",
      "type": "error"
    },
    {
      "inputs": [
        {
          "internalType": "address",
          "name": "tokenReceiver",
          "type": "address"
        }
      ],
      "name": "LSP7NotifyTokenReceiverContractMissingLSP1Interface",
      "type": "error"
    },
    {
      "inputs": [
        {
          "internalType": "address",
          "name": "tokenReceiver",
          "type": "address"
        }
      ],
      "name": "LSP7NotifyTokenReceiverIsEOA",
      "type": "error"
    },
    {
      "anonymous": false,
      "inputs": [
        {
          "indexed": true,
          "internalType": "address",
          "name": "operator",
          "type": "address"
        },
        {
          "indexed": true,
          "internalType": "address",
          "name": "tokenOwner",
          "type": "address"
        },
        {
          "indexed": true,
          "internalType": "uint256",
          "name": "amount",
          "type": "uint256"
        }
      ],
      "name": "AuthorizedOperator",
      "type": "event"
    },
    {
      "anonymous": false,
      "inputs": [
        {
          "indexed": true,
          "internalType": "bytes32",
          "name": "dataKey",
          "type": "bytes32"
        }
      ],
      "name": "DataChanged",
      "type": "event"
    },
    {
      "anonymous": false,
      "inputs": [
        {
          "indexed": true,
          "internalType": "address",
          "name": "previousOwner",
          "type": "address"
        },
        {
          "indexed": true,
          "internalType": "address",
          "name": "newOwner",
          "type": "address"
        }
      ],
      "name": "OwnershipTransferred",
      "type": "event"
    },
    {
      "anonymous": false,
      "inputs": [
        {
          "indexed": true,
          "internalType": "address",
          "name": "operator",
          "type": "address"
        },
        {
          "indexed": true,
          "internalType": "address",
          "name": "tokenOwner",
          "type": "address"
        }
      ],
      "name": "RevokedOperator",
      "type": "event"
    },
    {
      "anonymous": false,
      "inputs": [
        {
          "indexed": true,
          "internalType": "address",
          "name": "operator",
          "type": "address"
        },
        {
          "indexed": true,
          "internalType": "address",
          "name": "from",
          "type": "address"
        },
        {
          "indexed": true,
          "internalType": "address",
          "name": "to",
          "type": "address"
        },
        {
          "indexed": false,
          "internalType": "uint256",
          "name": "amount",
          "type": "uint256"
        },
        {
          "indexed": false,
          "internalType": "bool",
          "name": "force",
          "type": "bool"
        },
        {
          "indexed": false,
          "internalType": "bytes",
          "name": "data",
          "type": "bytes"
        }
      ],
      "name": "Transfer",
      "type": "event"
    },
    {
      "inputs": [
        {
          "internalType": "address",
          "name": "operator",
          "type": "address"
        },
        {
          "internalType": "uint256",
          "name": "amount",
          "type": "uint256"
        }
      ],
      "name": "authorizeOperator",
      "outputs": [],
      "stateMutability": "nonpayable",
      "type": "function"
    },
    {
      "inputs": [
        {
          "internalType": "address",
          "name": "tokenOwner",
          "type": "address"
        }
      ],
      "name": "balanceOf",
      "outputs": [
        {
          "internalType": "uint256",
          "name": "",
          "type": "uint256"
        }
      ],
      "stateMutability": "view",
      "type": "function"
    },
    {
      "inputs": [],
      "name": "decimals",
      "outputs": [
        {
          "internalType": "uint256",
          "name": "",
          "type": "uint256"
        }
      ],
      "stateMutability": "view",
      "type": "function"
    },
    {
      "inputs": [
        {
          "internalType": "bytes32[]",
          "name": "dataKeys",
          "type": "bytes32[]"
        }
      ],
      "name": "getData",
      "outputs": [
        {
          "internalType": "bytes[]",
          "name": "dataValues",
          "type": "bytes[]"
        }
      ],
      "stateMutability": "view",
      "type": "function"
    },
    {
      "inputs": [
        {
          "internalType": "bytes32",
          "name": "dataKey",
          "type": "bytes32"
        }
      ],
      "name": "getData",
      "outputs": [
        {
          "internalType": "bytes",
          "name": "dataValue",
          "type": "bytes"
        }
      ],
      "stateMutability": "view",
      "type": "function"
    },
    {
      "inputs": [
        {
          "internalType": "address",
          "name": "operator",
          "type": "address"
        },
        {
          "internalType": "address",
          "name": "tokenOwner",
          "type": "address"
        }
      ],
      "name": "isOperatorFor",
      "outputs": [
        {
          "internalType": "uint256",
          "name": "",
          "type": "uint256"
        }
      ],
      "stateMutability": "view",
      "type": "function"
    },
    {
      "inputs": [],
      "name": "owner",
      "outputs": [
        {
          "internalType": "address",
          "name": "",
          "type": "address"
        }
      ],
      "stateMutability": "view",
      "type": "function"
    },
    {
      "inputs": [],
      "name": "renounceOwnership",
      "outputs": [],
      "stateMutability": "nonpayable",
      "type": "function"
    },
    {
      "inputs": [
        {
          "internalType": "address",
          "name": "operator",
          "type": "address"
        }
      ],
      "name": "revokeOperator",
      "outputs": [],
      "stateMutability": "nonpayable",
      "type": "function"
    },
    {
      "inputs": [
        {
          "internalType": "bytes32[]",
          "name": "dataKeys",
          "type": "bytes32[]"
        },
        {
          "internalType": "bytes[]",
          "name": "dataValues",
          "type": "bytes[]"
        }
      ],
      "name": "setData",
      "outputs": [],
      "stateMutability": "nonpayable",
      "type": "function"
    },
    {
      "inputs": [
        {
          "internalType": "bytes32",
          "name": "dataKey",
          "type": "bytes32"
        },
        {
          "internalType": "bytes",
          "name": "dataValue",
          "type": "bytes"
        }
      ],
      "name": "setData",
      "outputs": [],
      "stateMutability": "nonpayable",
      "type": "function"
    },
    {
      "inputs": [],
      "name": "totalSupply",
      "outputs": [
        {
          "internalType": "uint256",
          "name": "",
          "type": "uint256"
        }
      ],
      "stateMutability": "view",
      "type": "function"
    },
    {
      "inputs": [
        {
          "internalType": "address",
          "name": "from",
          "type": "address"
        },
        {
          "internalType": "address",
          "name": "to",
          "type": "address"
        },
        {
          "internalType": "uint256",
          "name": "amount",
          "type": "uint256"
        },
        {
          "internalType": "bool",
          "name": "force",
          "type": "bool"
        },
        {
          "internalType": "bytes",
          "name": "data",
          "type": "bytes"
        }
      ],
      "name": "transfer",
      "outputs": [],
      "stateMutability": "nonpayable",
      "type": "function"
    },
    {
      "inputs": [
        {
          "internalType": "address[]",
          "name": "from",
          "type": "address[]"
        },
        {
          "internalType": "address[]",
          "name": "to",
          "type": "address[]"
        },
        {
          "internalType": "uint256[]",
          "name": "amount",
          "type": "uint256[]"
        },
        {
          "internalType": "bool",
          "name": "force",
          "type": "bool"
        },
        {
          "internalType": "bytes[]",
          "name": "data",
          "type": "bytes[]"
        }
      ],
      "name": "transferBatch",
      "outputs": [],
      "stateMutability": "nonpayable",
      "type": "function"
    },
    {
      "inputs": [
        {
          "internalType": "address",
          "name": "newOwner",
          "type": "address"
        }
      ],
      "name": "transferOwnership",
      "outputs": [],
      "stateMutability": "nonpayable",
      "type": "function"
    },
    {
      "inputs": [
        {
          "internalType": "bytes4",
          "name": "interfaceId",
          "type": "bytes4"
        }
      ],
      "name": "supportsInterface",
      "outputs": [
        {
          "internalType": "bool",
          "name": "",
          "type": "bool"
        }
      ],
      "stateMutability": "view",
      "type": "function"
    }
  ],
  "bytecode": "0x60806040523480156200001157600080fd5b506040516200307f3803806200307f8339818101604052810190620000379190620005d7565b8383838062000051816200015c60201b6200099b1760201c565b50620000c17feafec4d89fa9619884b60000a4d96624a38f7ac2d8d9a604ecf07c12c77e480c60001b6040518060400160405280600481526020017fa4d96624000000000000000000000000000000000000000000000000000000008152506200026460201b62000a9a1760201c565b620000fb7fdeba1e292f8ba88238e10ab3c7f88bd4be4fac56cad5194b6ecceaf653468af160001b846200026460201b62000a9a1760201c565b620001357f2f0a68ab07768e01943a599e73362a0e17a63a72e94dd2e384d2c1d4db93275660001b836200026460201b62000a9a1760201c565b50505080600260006101000a81548160ff02191690831515021790555050505050620006eb565b6200016c620002bf60201b60201c565b73ffffffffffffffffffffffffffffffffffffffff168173ffffffffffffffffffffffffffffffffffffffff1614620002615760008060009054906101000a900473ffffffffffffffffffffffffffffffffffffffff169050816000806101000a81548173ffffffffffffffffffffffffffffffffffffffff021916908373ffffffffffffffffffffffffffffffffffffffff1602179055508173ffffffffffffffffffffffffffffffffffffffff168173ffffffffffffffffffffffffffffffffffffffff167f8be0079c531659141344cd1fd0a4f28419497f9722a3daafe3b4186f6b6457e060405160405180910390a3505b50565b806001600084815260200190815260200160002090805190602001906200028d929190620002e8565b50817fcdf4e344c0d23d4cdd0474039d176c55b19d531070dbe17856bfb993a5b5720b60405160405180910390a25050565b60008060009054906101000a900473ffffffffffffffffffffffffffffffffffffffff16905090565b828054620002f690620006b6565b90600052602060002090601f0160209004810192826200031a576000855562000366565b82601f106200033557805160ff191683800117855562000366565b8280016001018555821562000366579182015b828111156200036557825182559160200191906001019062000348565b5b50905062000375919062000379565b5090565b5b80821115620003945760008160009055506001016200037a565b5090565b6000604051905090565b600080fd5b600080fd5b600080fd5b600080fd5b6000601f19601f8301169050919050565b7f4e487b7100000000000000000000000000000000000000000000000000000000600052604160045260246000fd5b6200040182620003b6565b810181811067ffffffffffffffff82111715620004235762000422620003c7565b5b80604052505050565b60006200043862000398565b9050620004468282620003f6565b919050565b600067ffffffffffffffff821115620004695762000468620003c7565b5b6200047482620003b6565b9050602081019050919050565b60005b83811015620004a157808201518184015260208101905062000484565b83811115620004b1576000848401525b50505050565b6000620004ce620004c8846200044b565b6200042c565b905082815260208101848484011115620004ed57620004ec620003b1565b5b620004fa84828562000481565b509392505050565b600082601f8301126200051a5762000519620003ac565b5b81516200052c848260208601620004b7565b91505092915050565b600073ffffffffffffffffffffffffffffffffffffffff82169050919050565b6000620005628262000535565b9050919050565b620005748162000555565b81146200058057600080fd5b50565b600081519050620005948162000569565b92915050565b60008115159050919050565b620005b1816200059a565b8114620005bd57600080fd5b50565b600081519050620005d181620005a6565b92915050565b60008060008060808587031215620005f457620005f3620003a2565b5b600085015167ffffffffffffffff811115620006155762000614620003a7565b5b620006238782880162000502565b945050602085015167ffffffffffffffff811115620006475762000646620003a7565b5b620006558782880162000502565b9350506040620006688782880162000583565b92505060606200067b87828801620005c0565b91505092959194509250565b7f4e487b7100000000000000000000000000000000000000000000000000000000600052602260045260246000fd5b60006002820490506001821680620006cf57607f821691505b602082108103620006e557620006e462000687565b5b50919050565b61298480620006fb6000396000f3fe608060405234801561001057600080fd5b50600436106101005760003560e01c8063715018a611610097578063a8a34e0a11610066578063a8a34e0a14610299578063d95b6371146102b5578063f2fde38b146102e5578063fad8b32a1461030157610100565b8063715018a614610239578063760d9bba146102435780637f23690c1461025f5780638da5cb5b1461027b57610100565b806347980aa3116100d357806347980aa31461018d5780634e3e6e9c146101a957806354f6127f146101d957806370a082311461020957610100565b806301ffc9a71461010557806314a6e2931461013557806318160ddd14610151578063313ce5671461016f575b600080fd5b61011f600480360381019061011a9190611786565b61031d565b60405161012c91906117ce565b60405180910390f35b61014f600480360381019061014a9190611b0e565b61037e565b005b610159610429565b6040516101669190611b9f565b60405180910390f35b610177610433565b6040516101849190611b9f565b60405180910390f35b6101a760048036038101906101a29190611c44565b61045b565b005b6101c360048036038101906101be9190611c84565b610471565b6040516101d09190611e17565b60405180910390f35b6101f360048036038101906101ee9190611e39565b610527565b6040516102009190611eb0565b60405180910390f35b610223600480360381019061021e9190611ed2565b610539565b6040516102309190611b9f565b60405180910390f35b610241610582565b005b61025d60048036038101906102589190611f2b565b610596565b005b61027960048036038101906102749190611fc2565b6106ce565b005b6102836106e4565b604051610290919061202d565b60405180910390f35b6102b360048036038101906102ae91906121ce565b61070d565b005b6102cf60048036038101906102ca91906122b9565b610800565b6040516102dc9190611b9f565b60405180910390f35b6102ff60048036038101906102fa9190611ed2565b610902565b005b61031b60048036038101906103169190611ed2565b610985565b005b600063e33f65c360e01b7bffffffffffffffffffffffffffffffffffffffffffffffffffffffff1916827bffffffffffffffffffffffffffffffffffffffffffffffffffffffff19161480610377575061037682610af3565b5b9050919050565b610386610b54565b80518251146103ca576040517f08c379a00000000000000000000000000000000000000000000000000000000081526004016103c19061237c565b60405180910390fd5b60005b8251811015610424576104148382815181106103ec576103eb61239c565b5b60200260200101518383815181106104075761040661239c565b5b6020026020010151610bcb565b61041d81610c91565b90506103cd565b505050565b6000600354905090565b6000600260009054906101000a900460ff16610450576012610453565b60005b60ff16905090565b61046d610466610c9e565b8383610ca6565b5050565b6060815167ffffffffffffffff81111561048e5761048d6117ff565b5b6040519080825280602002602001820160405280156104c157816020015b60608152602001906001900390816104ac5790505b50905060005b8251811015610521576104f38382815181106104e6576104e561239c565b5b6020026020010151610e8a565b8282815181106105065761050561239c565b5b602002602001018190525061051a81610c91565b90506104c7565b50919050565b606061053282610e8a565b9050919050565b6000600460008373ffffffffffffffffffffffffffffffffffffffff1673ffffffffffffffffffffffffffffffffffffffff168152602001908152602001600020549050919050565b61058a610b54565b610594600061099b565b565b60006105a0610c9e565b90508573ffffffffffffffffffffffffffffffffffffffff168173ffffffffffffffffffffffffffffffffffffffff16146106b9576000600560008873ffffffffffffffffffffffffffffffffffffffff1673ffffffffffffffffffffffffffffffffffffffff16815260200190815260200160002060008373ffffffffffffffffffffffffffffffffffffffff1673ffffffffffffffffffffffffffffffffffffffff168152602001908152602001600020549050808511156106a157868183876040517ff3a6b69100000000000000000000000000000000000000000000000000000000815260040161069894939291906123cb565b60405180910390fd5b6106b7878387846106b2919061243f565b610ca6565b505b6106c68686868686610f2f565b505050505050565b6106d6610b54565b6106e08282610bcb565b5050565b60008060009054906101000a900473ffffffffffffffffffffffffffffffffffffffff16905090565b8351855114158061072057508251855114155b8061072d57508051855114155b15610764576040517f263eee8d00000000000000000000000000000000000000000000000000000000815260040160405180910390fd5b60005b85518110156107f8576107e58682815181106107865761078561239c565b5b60200260200101518683815181106107a1576107a061239c565b5b60200260200101518684815181106107bc576107bb61239c565b5b6020026020010151868686815181106107d8576107d761239c565b5b6020026020010151610596565b80806107f090612473565b915050610767565b505050505050565b60008273ffffffffffffffffffffffffffffffffffffffff168273ffffffffffffffffffffffffffffffffffffffff160361087c57600460008373ffffffffffffffffffffffffffffffffffffffff1673ffffffffffffffffffffffffffffffffffffffff1681526020019081526020016000205490506108fc565b600560008373ffffffffffffffffffffffffffffffffffffffff1673ffffffffffffffffffffffffffffffffffffffff16815260200190815260200160002060008473ffffffffffffffffffffffffffffffffffffffff1673ffffffffffffffffffffffffffffffffffffffff1681526020019081526020016000205490505b92915050565b61090a610b54565b600073ffffffffffffffffffffffffffffffffffffffff168173ffffffffffffffffffffffffffffffffffffffff1603610979576040517f08c379a00000000000000000000000000000000000000000000000000000000081526004016109709061252d565b60405180910390fd5b6109828161099b565b50565b610998610990610c9e565b826000610ca6565b50565b6109a36106e4565b73ffffffffffffffffffffffffffffffffffffffff168173ffffffffffffffffffffffffffffffffffffffff1614610a975760008060009054906101000a900473ffffffffffffffffffffffffffffffffffffffff169050816000806101000a81548173ffffffffffffffffffffffffffffffffffffffff021916908373ffffffffffffffffffffffffffffffffffffffff1602179055508173ffffffffffffffffffffffffffffffffffffffff168173ffffffffffffffffffffffffffffffffffffffff167f8be0079c531659141344cd1fd0a4f28419497f9722a3daafe3b4186f6b6457e060405160405180910390a3505b50565b80600160008481526020019081526020016000209080519060200190610ac1929190611677565b50817fcdf4e344c0d23d4cdd0474039d176c55b19d531070dbe17856bfb993a5b5720b60405160405180910390a25050565b600063714df77c60e01b7bffffffffffffffffffffffffffffffffffffffffffffffffffffffff1916827bffffffffffffffffffffffffffffffffffffffffffffffffffffffff19161480610b4d5750610b4c826111bf565b5b9050919050565b3373ffffffffffffffffffffffffffffffffffffffff16610b736106e4565b73ffffffffffffffffffffffffffffffffffffffff1614610bc9576040517f08c379a0000000000000000000000000000000000000000000000000000000008152600401610bc090612599565b60405180910390fd5b565b7fdeba1e292f8ba88238e10ab3c7f88bd4be4fac56cad5194b6ecceaf653468af160001b8203610c27576040517f85c169bd00000000000000000000000000000000000000000000000000000000815260040160405180910390fd5b7f2f0a68ab07768e01943a599e73362a0e17a63a72e94dd2e384d2c1d4db93275660001b8203610c83576040517f76755b3800000000000000000000000000000000000000000000000000000000815260040160405180910390fd5b610c8d8282610a9a565b5050565b6000600182019050919050565b600033905090565b600073ffffffffffffffffffffffffffffffffffffffff168273ffffffffffffffffffffffffffffffffffffffff1603610d0c576040517f6355e76600000000000000000000000000000000000000000000000000000000815260040160405180910390fd5b8273ffffffffffffffffffffffffffffffffffffffff168273ffffffffffffffffffffffffffffffffffffffff160315610e855780600560008573ffffffffffffffffffffffffffffffffffffffff1673ffffffffffffffffffffffffffffffffffffffff16815260200190815260200160002060008473ffffffffffffffffffffffffffffffffffffffff1673ffffffffffffffffffffffffffffffffffffffff1681526020019081526020016000208190555060008114610e2957808373ffffffffffffffffffffffffffffffffffffffff168373ffffffffffffffffffffffffffffffffffffffff167fd66aff874162a96578e919097b6f6d153dfd89a5cec41bb331fdb0c4aec16e2c60405160405180910390a4610e84565b8273ffffffffffffffffffffffffffffffffffffffff168273ffffffffffffffffffffffffffffffffffffffff167f50546e66e5f44d728365dc3908c63bc5cfeeab470722c1677e3073a6ac294aa160405160405180910390a35b5b505050565b6060600160008381526020019081526020016000208054610eaa906125e8565b80601f0160208091040260200160405190810160405280929190818152602001828054610ed6906125e8565b8015610f235780601f10610ef857610100808354040283529160200191610f23565b820191906000526020600020905b815481529060010190602001808311610f0657829003601f168201915b50505050509050919050565b600073ffffffffffffffffffffffffffffffffffffffff168573ffffffffffffffffffffffffffffffffffffffff161480610f965750600073ffffffffffffffffffffffffffffffffffffffff168473ffffffffffffffffffffffffffffffffffffffff16145b15610fcd576040517fd2d5ec3000000000000000000000000000000000000000000000000000000000815260040160405180910390fd5b6000600460008773ffffffffffffffffffffffffffffffffffffffff1673ffffffffffffffffffffffffffffffffffffffff1681526020019081526020016000205490508084111561105a578086856040517f08d4794900000000000000000000000000000000000000000000000000000000815260040161105193929190612619565b60405180910390fd5b6000611064610c9e565b9050611071878787611229565b84600460008973ffffffffffffffffffffffffffffffffffffffff1673ffffffffffffffffffffffffffffffffffffffff16815260200190815260200160002060008282546110c0919061243f565b9250508190555084600460008873ffffffffffffffffffffffffffffffffffffffff1673ffffffffffffffffffffffffffffffffffffffff16815260200190815260200160002060008282546111169190612650565b925050819055508573ffffffffffffffffffffffffffffffffffffffff168773ffffffffffffffffffffffffffffffffffffffff168273ffffffffffffffffffffffffffffffffffffffff167f3997e418d2cef0b3b0e907b1e39605c3f7d32dbd061e82ea5b4a770d46a160a6888888604051611195939291906126a6565b60405180910390a46111a9878787866112ca565b6111b687878787876113b9565b50505050505050565b60007f01ffc9a7000000000000000000000000000000000000000000000000000000007bffffffffffffffffffffffffffffffffffffffffffffffffffffffff1916827bffffffffffffffffffffffffffffffffffffffffffffffffffffffff1916149050919050565b600073ffffffffffffffffffffffffffffffffffffffff168373ffffffffffffffffffffffffffffffffffffffff160361127757806003600082825461126f9190612650565b925050819055505b600073ffffffffffffffffffffffffffffffffffffffff168273ffffffffffffffffffffffffffffffffffffffff16036112c55780600360008282546112bd919061243f565b925050819055505b505050565b6112db84636bb56a1460e01b61154c565b156113b3576000848484846040516020016112f99493929190612789565b60405160208183030381529060405290508473ffffffffffffffffffffffffffffffffffffffff16636bb56a147f40b8bec57d7b5ff0dbd9e9acd0a47dfeb0101e1a203766f5ccab00445fbf39e960001b836040518363ffffffff1660e01b81526004016113689291906127e2565b6000604051808303816000875af1158015611387573d6000803e3d6000fd5b505050506040513d6000823e3d601f19601f820116820180604052508101906113b09190612882565b50505b50505050565b6113ca84636bb56a1460e01b61154c565b156114a6576000858585846040516020016113e89493929190612789565b60405160208183030381529060405290508473ffffffffffffffffffffffffffffffffffffffff16636bb56a147fdbe2c314e1aee2970c72666f2ebe8933a8575263ea71e5ff6a9178e95d47a26f60001b836040518363ffffffff1660e01b81526004016114579291906127e2565b6000604051808303816000875af1158015611476573d6000803e3d6000fd5b505050506040513d6000823e3d601f19601f8201168201806040525081019061149f9190612882565b5050611545565b816115445760008473ffffffffffffffffffffffffffffffffffffffff163b1461150757836040517fa608fbb60000000000000000000000000000000000000000000000000000000081526004016114fe919061202d565b60405180910390fd5b836040517f26c247f400000000000000000000000000000000000000000000000000000000815260040161153b919061202d565b60405180910390fd5b5b5050505050565b6000806301ffc9a760e01b8360405160240161156891906128da565b604051602081830303815290604052907bffffffffffffffffffffffffffffffffffffffffffffffffffffffff19166020820180517bffffffffffffffffffffffffffffffffffffffffffffffffffffffff838183161783525050505090506000808573ffffffffffffffffffffffffffffffffffffffff16617530846040516115f291906128f5565b6000604051808303818686fa925050503d806000811461162e576040519150601f19603f3d011682016040523d82523d6000602084013e611633565b606091505b509150915060208151101561164e5760009350505050611671565b81801561166b57508080602001905181019061166a9190612921565b5b93505050505b92915050565b828054611683906125e8565b90600052602060002090601f0160209004810192826116a557600085556116ec565b82601f106116be57805160ff19168380011785556116ec565b828001600101855582156116ec579182015b828111156116eb5782518255916020019190600101906116d0565b5b5090506116f991906116fd565b5090565b5b808211156117165760008160009055506001016116fe565b5090565b6000604051905090565b600080fd5b600080fd5b60007fffffffff0000000000000000000000000000000000000000000000000000000082169050919050565b6117638161172e565b811461176e57600080fd5b50565b6000813590506117808161175a565b92915050565b60006020828403121561179c5761179b611724565b5b60006117aa84828501611771565b91505092915050565b60008115159050919050565b6117c8816117b3565b82525050565b60006020820190506117e360008301846117bf565b92915050565b600080fd5b6000601f19601f8301169050919050565b7f4e487b7100000000000000000000000000000000000000000000000000000000600052604160045260246000fd5b611837826117ee565b810181811067ffffffffffffffff82111715611856576118556117ff565b5b80604052505050565b600061186961171a565b9050611875828261182e565b919050565b600067ffffffffffffffff821115611895576118946117ff565b5b602082029050602081019050919050565b600080fd5b6000819050919050565b6118be816118ab565b81146118c957600080fd5b50565b6000813590506118db816118b5565b92915050565b60006118f46118ef8461187a565b61185f565b90508083825260208201905060208402830185811115611917576119166118a6565b5b835b81811015611940578061192c88826118cc565b845260208401935050602081019050611919565b5050509392505050565b600082601f83011261195f5761195e6117e9565b5b813561196f8482602086016118e1565b91505092915050565b600067ffffffffffffffff821115611993576119926117ff565b5b602082029050602081019050919050565b600080fd5b600067ffffffffffffffff8211156119c4576119c36117ff565b5b6119cd826117ee565b9050602081019050919050565b82818337600083830152505050565b60006119fc6119f7846119a9565b61185f565b905082815260208101848484011115611a1857611a176119a4565b5b611a238482856119da565b509392505050565b600082601f830112611a4057611a3f6117e9565b5b8135611a508482602086016119e9565b91505092915050565b6000611a6c611a6784611978565b61185f565b90508083825260208201905060208402830185811115611a8f57611a8e6118a6565b5b835b81811015611ad657803567ffffffffffffffff811115611ab457611ab36117e9565b5b808601611ac18982611a2b565b85526020850194505050602081019050611a91565b5050509392505050565b600082601f830112611af557611af46117e9565b5b8135611b05848260208601611a59565b91505092915050565b60008060408385031215611b2557611b24611724565b5b600083013567ffffffffffffffff811115611b4357611b42611729565b5b611b4f8582860161194a565b925050602083013567ffffffffffffffff811115611b7057611b6f611729565b5b611b7c85828601611ae0565b9150509250929050565b6000819050919050565b611b9981611b86565b82525050565b6000602082019050611bb46000830184611b90565b92915050565b600073ffffffffffffffffffffffffffffffffffffffff82169050919050565b6000611be582611bba565b9050919050565b611bf581611bda565b8114611c0057600080fd5b50565b600081359050611c1281611bec565b92915050565b611c2181611b86565b8114611c2c57600080fd5b50565b600081359050611c3e81611c18565b92915050565b60008060408385031215611c5b57611c5a611724565b5b6000611c6985828601611c03565b9250506020611c7a85828601611c2f565b9150509250929050565b600060208284031215611c9a57611c99611724565b5b600082013567ffffffffffffffff811115611cb857611cb7611729565b5b611cc48482850161194a565b91505092915050565b600081519050919050565b600082825260208201905092915050565b6000819050602082019050919050565b600081519050919050565b600082825260208201905092915050565b60005b83811015611d33578082015181840152602081019050611d18565b83811115611d42576000848401525b50505050565b6000611d5382611cf9565b611d5d8185611d04565b9350611d6d818560208601611d15565b611d76816117ee565b840191505092915050565b6000611d8d8383611d48565b905092915050565b6000602082019050919050565b6000611dad82611ccd565b611db78185611cd8565b935083602082028501611dc985611ce9565b8060005b85811015611e055784840389528151611de68582611d81565b9450611df183611d95565b925060208a01995050600181019050611dcd565b50829750879550505050505092915050565b60006020820190508181036000830152611e318184611da2565b905092915050565b600060208284031215611e4f57611e4e611724565b5b6000611e5d848285016118cc565b91505092915050565b600082825260208201905092915050565b6000611e8282611cf9565b611e8c8185611e66565b9350611e9c818560208601611d15565b611ea5816117ee565b840191505092915050565b60006020820190508181036000830152611eca8184611e77565b905092915050565b600060208284031215611ee857611ee7611724565b5b6000611ef684828501611c03565b91505092915050565b611f08816117b3565b8114611f1357600080fd5b50565b600081359050611f2581611eff565b92915050565b600080600080600060a08688031215611f4757611f46611724565b5b6000611f5588828901611c03565b9550506020611f6688828901611c03565b9450506040611f7788828901611c2f565b9350506060611f8888828901611f16565b925050608086013567ffffffffffffffff811115611fa957611fa8611729565b5b611fb588828901611a2b565b9150509295509295909350565b60008060408385031215611fd957611fd8611724565b5b6000611fe7858286016118cc565b925050602083013567ffffffffffffffff81111561200857612007611729565b5b61201485828601611a2b565b9150509250929050565b61202781611bda565b82525050565b6000602082019050612042600083018461201e565b92915050565b600067ffffffffffffffff821115612063576120626117ff565b5b602082029050602081019050919050565b600061208761208284612048565b61185f565b905080838252602082019050602084028301858111156120aa576120a96118a6565b5b835b818110156120d357806120bf8882611c03565b8452602084019350506020810190506120ac565b5050509392505050565b600082601f8301126120f2576120f16117e9565b5b8135612102848260208601612074565b91505092915050565b600067ffffffffffffffff821115612126576121256117ff565b5b602082029050602081019050919050565b600061214a6121458461210b565b61185f565b9050808382526020820190506020840283018581111561216d5761216c6118a6565b5b835b8181101561219657806121828882611c2f565b84526020840193505060208101905061216f565b5050509392505050565b600082601f8301126121b5576121b46117e9565b5b81356121c5848260208601612137565b91505092915050565b600080600080600060a086880312156121ea576121e9611724565b5b600086013567ffffffffffffffff81111561220857612207611729565b5b612214888289016120dd565b955050602086013567ffffffffffffffff81111561223557612234611729565b5b612241888289016120dd565b945050604086013567ffffffffffffffff81111561226257612261611729565b5b61226e888289016121a0565b935050606061227f88828901611f16565b925050608086013567ffffffffffffffff8111156122a05761229f611729565b5b6122ac88828901611ae0565b9150509295509295909350565b600080604083850312156122d0576122cf611724565b5b60006122de85828601611c03565b92505060206122ef85828601611c03565b9150509250929050565b600082825260208201905092915050565b7f4b657973206c656e677468206e6f7420657175616c20746f2076616c7565732060008201527f6c656e6774680000000000000000000000000000000000000000000000000000602082015250565b60006123666026836122f9565b91506123718261230a565b604082019050919050565b6000602082019050818103600083015261239581612359565b9050919050565b7f4e487b7100000000000000000000000000000000000000000000000000000000600052603260045260246000fd5b60006080820190506123e0600083018761201e565b6123ed6020830186611b90565b6123fa604083018561201e565b6124076060830184611b90565b95945050505050565b7f4e487b7100000000000000000000000000000000000000000000000000000000600052601160045260246000fd5b600061244a82611b86565b915061245583611b86565b92508282101561246857612467612410565b5b828203905092915050565b600061247e82611b86565b91507fffffffffffffffffffffffffffffffffffffffffffffffffffffffffffffffff82036124b0576124af612410565b5b600182019050919050565b7f4f776e61626c653a206e6577206f776e657220697320746865207a65726f206160008201527f6464726573730000000000000000000000000000000000000000000000000000602082015250565b60006125176026836122f9565b9150612522826124bb565b604082019050919050565b600060208201905081810360008301526125468161250a565b9050919050565b7f4f776e61626c653a2063616c6c6572206973206e6f7420746865206f776e6572600082015250565b60006125836020836122f9565b915061258e8261254d565b602082019050919050565b600060208201905081810360008301526125b281612576565b9050919050565b7f4e487b7100000000000000000000000000000000000000000000000000000000600052602260045260246000fd5b6000600282049050600182168061260057607f821691505b602082108103612613576126126125b9565b5b50919050565b600060608201905061262e6000830186611b90565b61263b602083018561201e565b6126486040830184611b90565b949350505050565b600061265b82611b86565b915061266683611b86565b9250827fffffffffffffffffffffffffffffffffffffffffffffffffffffffffffffffff0382111561269b5761269a612410565b5b828201905092915050565b60006060820190506126bb6000830186611b90565b6126c860208301856117bf565b81810360408301526126da8184611e77565b9050949350505050565b60008160601b9050919050565b60006126fc826126e4565b9050919050565b600061270e826126f1565b9050919050565b61272661272182611bda565b612703565b82525050565b6000819050919050565b61274761274282611b86565b61272c565b82525050565b600081905092915050565b600061276382611cf9565b61276d818561274d565b935061277d818560208601611d15565b80840191505092915050565b60006127958287612715565b6014820191506127a58286612715565b6014820191506127b58285612736565b6020820191506127c58284612758565b915081905095945050505050565b6127dc816118ab565b82525050565b60006040820190506127f760008301856127d3565b81810360208301526128098184611e77565b90509392505050565b6000612825612820846119a9565b61185f565b905082815260208101848484011115612841576128406119a4565b5b61284c848285611d15565b509392505050565b600082601f830112612869576128686117e9565b5b8151612879848260208601612812565b91505092915050565b60006020828403121561289857612897611724565b5b600082015167ffffffffffffffff8111156128b6576128b5611729565b5b6128c284828501612854565b91505092915050565b6128d48161172e565b82525050565b60006020820190506128ef60008301846128cb565b92915050565b60006129018284612758565b915081905092915050565b60008151905061291b81611eff565b92915050565b60006020828403121561293757612936611724565b5b60006129458482850161290c565b9150509291505056fea2646970667358221220597dcb8c76847f946f8b95c7b2054b1617270a9f569f0e20404ef0b0453f3ce364736f6c634300080d0033",
  "immutableReferences": {},
  "source": "// SPDX-License-Identifier: CC0-1.0\npragma solidity ^0.8.0;\n\n// interfaces\nimport {IERC165} from \"@openzeppelin/contracts/utils/introspection/IERC165.sol\";\n\n// modules\nimport {ERC725YCore} from \"@erc725/smart-contracts/contracts/ERC725YCore.sol\";\nimport {LSP4DigitalAssetMetadata} from \"../LSP4DigitalAssetMetadata/LSP4DigitalAssetMetadata.sol\";\nimport {LSP7DigitalAssetCore} from \"./LSP7DigitalAssetCore.sol\";\n\n// constants\nimport {_INTERFACEID_LSP7} from \"./LSP7Constants.sol\";\n\n/**\n * @title LSP7DigitalAsset contract\n * @author Matthew Stevens\n * @dev Implementation of a LSP7 compliant contract.\n *\n * This implementation is agnostic to the way tokens are created.\n * A supply mechanism has to be added in a derived contract using {_mint}\n * For a generic mechanism, see {LSP7Mintable}.\n */\ncontract LSP7DigitalAsset is LSP4DigitalAssetMetadata, LSP7DigitalAssetCore {\n    /**\n     * @notice Sets the token-Metadata\n     * @param name_ The name of the token\n     * @param symbol_ The symbol of the token\n     * @param newOwner_ The owner of the the token-Metadata\n     * @param isNFT_ Specify if the LSP7 token is a fungible or non-fungible token\n     */\n    constructor(\n        string memory name_,\n        string memory symbol_,\n        address newOwner_,\n        bool isNFT_\n    ) LSP4DigitalAssetMetadata(name_, symbol_, newOwner_) {\n        _isNFT = isNFT_;\n    }\n\n    /**\n     * @dev See {IERC165-supportsInterface}.\n     */\n    function supportsInterface(bytes4 interfaceId)\n        public\n        view\n        virtual\n        override(IERC165, ERC725YCore)\n        returns (bool)\n    {\n        return interfaceId == _INTERFACEID_LSP7 || super.supportsInterface(interfaceId);\n    }\n}\n",
  "sourcePath": "@lukso/lsp-smart-contracts/contracts/LSP7DigitalAsset/LSP7DigitalAsset.sol",
  "compiler": {
    "name": "solc",
    "version": "0.8.13+commit.abaa5c0e.Emscripten.clang"
  },
  "schemaVersion": "3.4.1",
  "updatedAt": "2022-08-28T10:41:49.400Z",
  "devdoc": {
    "author": "Matthew Stevens",
    "details": "Implementation of a LSP7 compliant contract. This implementation is agnostic to the way tokens are created. A supply mechanism has to be added in a derived contract using {_mint} For a generic mechanism, see {LSP7Mintable}.",
    "errors": {
      "LSP4TokenNameNotEditable()": [
        {
          "details": "Reverts when trying to edit the data key `LSP4TokenName` after the digital asset contract has been deployed.      The `LSP4TokenName` data key is located inside the ERC725Y key-value store of the digital asset contract.      It can be set only once inside the constructor/initializer when the digital asset contract is being deployed."
        }
      ],
      "LSP4TokenSymbolNotEditable()": [
        {
          "details": "Reverts when trying to edit the data key `LSP4TokenSymbol` after the digital asset contract has been deployed.      The `LSP4TokenSymbol` data key is located inside the ERC725Y key-value store of the digital asset contract.      It can be set only once inside the constructor/initializer when the digital asset contract is being deployed."
        }
      ]
    },
    "kind": "dev",
    "methods": {
      "authorizeOperator(address,uint256)": {
        "details": "Sets `amount` as the amount of tokens `operator` address has access to from callers tokens. See {isOperatorFor}. Requirements - `operator` cannot be the zero address. Emits an {AuthorizedOperator} event.",
        "params": {
          "amount": "The amount of tokens operator has access to.",
          "operator": "The address to authorize as an operator."
        }
      },
      "balanceOf(address)": {
        "details": "Returns the number of tokens owned by `tokenOwner`.",
        "params": {
          "tokenOwner": "The address to query"
        },
        "returns": {
          "_0": "The number of tokens owned by this address"
        }
      },
      "constructor": {
        "params": {
          "isNFT_": "Specify if the LSP7 token is a fungible or non-fungible token",
          "name_": "The name of the token",
          "newOwner_": "The owner of the the token-Metadata",
          "symbol_": "The symbol of the token"
        }
      },
      "decimals()": {
        "details": "Returns the number of decimals used to get its user representation If the contract represents a NFT then 0 SHOULD be used, otherwise 18 is the common value NOTE: This information is only used for _display_ purposes: it in no way affects any of the arithmetic of the contract, including {balanceOf} and {transfer}."
      },
      "getData(bytes32)": {
        "params": {
          "dataKey": "The key which value to retrieve"
        },
        "returns": {
          "dataValue": "The data stored at the key"
        }
      },
      "getData(bytes32[])": {
        "params": {
          "dataKeys": "The array of keys which values to retrieve"
        },
        "returns": {
          "dataValues": "The array of data stored at multiple keys"
        }
      },
      "isOperatorFor(address,address)": {
        "details": "Returns amount of tokens `operator` address has access to from `tokenOwner`. Operators can send and burn tokens on behalf of their owners. The tokenOwner is their own operator.",
        "params": {
          "operator": "The address to query operator status for.",
          "tokenOwner": "The token owner."
        },
        "returns": {
          "_0": "The amount of tokens `operator` address has access to from `tokenOwner`."
        }
      },
      "owner()": {
        "details": "Returns the address of the current owner."
      },
      "renounceOwnership()": {
        "details": "Leaves the contract without owner. It will not be possible to call `onlyOwner` functions anymore. Can only be called by the current owner. NOTE: Renouncing ownership will leave the contract without an owner, thereby removing any functionality that is only available to the owner."
      },
      "revokeOperator(address)": {
        "details": "Removes `operator` address as an operator of callers tokens. See {isOperatorFor}. Requirements - `operator` cannot be the zero address. Emits a {RevokedOperator} event.",
        "params": {
          "operator": "The address to revoke as an operator."
        }
      },
      "setData(bytes32,bytes)": {
        "params": {
          "dataKey": "The key to retrieve stored value",
          "dataValue": "The value to set SHOULD only be callable by the owner of the contract set via ERC173 Emits a {DataChanged} event."
        }
      },
      "setData(bytes32[],bytes[])": {
        "details": "Sets array of data for multiple given `dataKeys` SHOULD only be callable by the owner of the contract set via ERC173 Emits a {DataChanged} event.",
        "params": {
          "dataKeys": "The array of data keys for values to set",
          "dataValues": "The array of values to set"
        }
      },
      "supportsInterface(bytes4)": {
        "details": "See {IERC165-supportsInterface}."
      },
      "totalSupply()": {
        "details": "Returns the number of existing tokens.",
        "returns": {
          "_0": "The number of existing tokens"
        }
      },
      "transfer(address,address,uint256,bool,bytes)": {
        "details": "Transfers `amount` of tokens from `from` to `to`. The `force` parameter will be used when notifying the token sender and receiver. Requirements: - `from` cannot be the zero address. - `to` cannot be the zero address. - `amount` tokens must be owned by `from`. - If the caller is not `from`, it must be an operator for `from` with access to at least `amount` tokens. Emits a {Transfer} event.",
        "params": {
          "amount": "The amount of tokens to transfer.",
          "data": "Additional data the caller wants included in the emitted event, and sent in the hooks to `from` and `to` addresses.",
          "force": "When set to TRUE, to may be any address but when set to FALSE to must be a contract that supports LSP1 UniversalReceiver",
          "from": "The sending address.",
          "to": "The receiving address."
        }
      },
      "transferBatch(address[],address[],uint256[],bool,bytes[])": {
        "details": "Transfers many tokens based on the list `from`, `to`, `amount`. If any transfer fails the call will revert. Requirements: - `from`, `to`, `amount` lists are the same length. - no values in `from` can be the zero address. - no values in `to` can be the zero address. - each `amount` tokens must be owned by `from`. - If the caller is not `from`, it must be an operator for `from` with access to at least `amount` tokens. Emits {Transfer} events.",
        "params": {
          "amount": "The amount of tokens to transfer.",
          "data": "Additional data the caller wants included in the emitted event, and sent in the hooks to `from` and `to` addresses.",
          "force": "When set to TRUE, to may be any address but when set to FALSE to must be a contract that supports LSP1 UniversalReceiver",
          "from": "The list of sending addresses.",
          "to": "The list of receiving addresses."
        }
      },
      "transferOwnership(address)": {
        "details": "Transfers ownership of the contract to a new account (`newOwner`). Can only be called by the current owner."
      }
    },
    "title": "LSP7DigitalAsset contract",
    "version": 1
  },
  "userdoc": {
    "events": {
      "DataChanged(bytes32)": {
        "notice": "Emitted when data at a key is changed"
      }
    },
    "kind": "user",
    "methods": {
      "constructor": {
        "notice": "Sets the token-Metadata"
      },
      "getData(bytes32)": {
        "notice": "Gets singular data at a given `dataKey`"
      },
      "getData(bytes32[])": {
        "notice": "Gets array of data for multiple given keys"
      },
      "setData(bytes32,bytes)": {
        "notice": "Sets singular data for a given `dataKey`"
      }
    },
    "version": 1
  }
}