{
  "contractName": "SpaceOzToken",
  "abi": [
    {
      "inputs": [],
      "stateMutability": "nonpayable",
      "type": "constructor"
    },
    {
      "inputs": [],
      "name": "LSP4TokenNameNotEditable",
      "type": "error"
    },
    {
      "inputs": [],
      "name": "LSP4TokenSymbolNotEditable",
      "type": "error"
    },
    {
      "inputs": [
        {
          "internalType": "address",
          "name": "tokenOwner",
          "type": "address"
        },
        {
          "internalType": "uint256",
          "name": "authorizedAmount",
          "type": "uint256"
        },
        {
          "internalType": "address",
          "name": "operator",
          "type": "address"
        },
        {
          "internalType": "uint256",
          "name": "amount",
          "type": "uint256"
        }
      ],
      "name": "LSP7AmountExceedsAuthorizedAmount",
      "type": "error"
    },
    {
      "inputs": [
        {
          "internalType": "uint256",
          "name": "balance",
          "type": "uint256"
        },
        {
          "internalType": "address",
          "name": "tokenOwner",
          "type": "address"
        },
        {
          "internalType": "uint256",
          "name": "amount",
          "type": "uint256"
        }
      ],
      "name": "LSP7AmountExceedsBalance",
      "type": "error"
    },
    {
      "inputs": [],
      "name": "LSP7CannotSendWithAddressZero",
      "type": "error"
    },
    {
      "inputs": [],
      "name": "LSP7CannotUseAddressZeroAsOperator",
      "type": "error"
    },
    {
      "inputs": [],
      "name": "LSP7InvalidTransferBatch",
      "type": "error"
    },
    {
      "inputs": [
        {
          "internalType": "address",
          "name": "tokenReceiver",
          "type": "address"
        }
      ],
      "name": "LSP7NotifyTokenReceiverContractMissingLSP1Interface",
      "type": "error"
    },
    {
      "inputs": [
        {
          "internalType": "address",
          "name": "tokenReceiver",
          "type": "address"
        }
      ],
      "name": "LSP7NotifyTokenReceiverIsEOA",
      "type": "error"
    },
    {
      "anonymous": false,
      "inputs": [
        {
          "indexed": true,
          "internalType": "address",
          "name": "operator",
          "type": "address"
        },
        {
          "indexed": true,
          "internalType": "address",
          "name": "tokenOwner",
          "type": "address"
        },
        {
          "indexed": true,
          "internalType": "uint256",
          "name": "amount",
          "type": "uint256"
        }
      ],
      "name": "AuthorizedOperator",
      "type": "event"
    },
    {
      "anonymous": false,
      "inputs": [
        {
          "indexed": true,
          "internalType": "bytes32",
          "name": "dataKey",
          "type": "bytes32"
        }
      ],
      "name": "DataChanged",
      "type": "event"
    },
    {
      "anonymous": false,
      "inputs": [
        {
          "indexed": true,
          "internalType": "address",
          "name": "previousOwner",
          "type": "address"
        },
        {
          "indexed": true,
          "internalType": "address",
          "name": "newOwner",
          "type": "address"
        }
      ],
      "name": "OwnershipTransferred",
      "type": "event"
    },
    {
      "anonymous": false,
      "inputs": [
        {
          "indexed": true,
          "internalType": "address",
          "name": "operator",
          "type": "address"
        },
        {
          "indexed": true,
          "internalType": "address",
          "name": "tokenOwner",
          "type": "address"
        }
      ],
      "name": "RevokedOperator",
      "type": "event"
    },
    {
      "anonymous": false,
      "inputs": [
        {
          "indexed": true,
          "internalType": "address",
          "name": "operator",
          "type": "address"
        },
        {
          "indexed": true,
          "internalType": "address",
          "name": "from",
          "type": "address"
        },
        {
          "indexed": true,
          "internalType": "address",
          "name": "to",
          "type": "address"
        },
        {
          "indexed": false,
          "internalType": "uint256",
          "name": "amount",
          "type": "uint256"
        },
        {
          "indexed": false,
          "internalType": "bool",
          "name": "force",
          "type": "bool"
        },
        {
          "indexed": false,
          "internalType": "bytes",
          "name": "data",
          "type": "bytes"
        }
      ],
      "name": "Transfer",
      "type": "event"
    },
    {
      "inputs": [
        {
          "internalType": "address",
          "name": "operator",
          "type": "address"
        },
        {
          "internalType": "uint256",
          "name": "amount",
          "type": "uint256"
        }
      ],
      "name": "authorizeOperator",
      "outputs": [],
      "stateMutability": "nonpayable",
      "type": "function"
    },
    {
      "inputs": [
        {
          "internalType": "address",
          "name": "tokenOwner",
          "type": "address"
        }
      ],
      "name": "balanceOf",
      "outputs": [
        {
          "internalType": "uint256",
          "name": "",
          "type": "uint256"
        }
      ],
      "stateMutability": "view",
      "type": "function"
    },
    {
      "inputs": [],
      "name": "decimals",
      "outputs": [
        {
          "internalType": "uint256",
          "name": "",
          "type": "uint256"
        }
      ],
      "stateMutability": "view",
      "type": "function"
    },
    {
      "inputs": [
        {
          "internalType": "bytes32[]",
          "name": "dataKeys",
          "type": "bytes32[]"
        }
      ],
      "name": "getData",
      "outputs": [
        {
          "internalType": "bytes[]",
          "name": "dataValues",
          "type": "bytes[]"
        }
      ],
      "stateMutability": "view",
      "type": "function"
    },
    {
      "inputs": [
        {
          "internalType": "bytes32",
          "name": "dataKey",
          "type": "bytes32"
        }
      ],
      "name": "getData",
      "outputs": [
        {
          "internalType": "bytes",
          "name": "dataValue",
          "type": "bytes"
        }
      ],
      "stateMutability": "view",
      "type": "function"
    },
    {
      "inputs": [
        {
          "internalType": "address",
          "name": "operator",
          "type": "address"
        },
        {
          "internalType": "address",
          "name": "tokenOwner",
          "type": "address"
        }
      ],
      "name": "isOperatorFor",
      "outputs": [
        {
          "internalType": "uint256",
          "name": "",
          "type": "uint256"
        }
      ],
      "stateMutability": "view",
      "type": "function"
    },
    {
      "inputs": [],
      "name": "owner",
      "outputs": [
        {
          "internalType": "address",
          "name": "",
          "type": "address"
        }
      ],
      "stateMutability": "view",
      "type": "function"
    },
    {
      "inputs": [],
      "name": "renounceOwnership",
      "outputs": [],
      "stateMutability": "nonpayable",
      "type": "function"
    },
    {
      "inputs": [
        {
          "internalType": "address",
          "name": "operator",
          "type": "address"
        }
      ],
      "name": "revokeOperator",
      "outputs": [],
      "stateMutability": "nonpayable",
      "type": "function"
    },
    {
      "inputs": [
        {
          "internalType": "bytes32[]",
          "name": "dataKeys",
          "type": "bytes32[]"
        },
        {
          "internalType": "bytes[]",
          "name": "dataValues",
          "type": "bytes[]"
        }
      ],
      "name": "setData",
      "outputs": [],
      "stateMutability": "nonpayable",
      "type": "function"
    },
    {
      "inputs": [
        {
          "internalType": "bytes32",
          "name": "dataKey",
          "type": "bytes32"
        },
        {
          "internalType": "bytes",
          "name": "dataValue",
          "type": "bytes"
        }
      ],
      "name": "setData",
      "outputs": [],
      "stateMutability": "nonpayable",
      "type": "function"
    },
    {
      "inputs": [
        {
          "internalType": "bytes4",
          "name": "interfaceId",
          "type": "bytes4"
        }
      ],
      "name": "supportsInterface",
      "outputs": [
        {
          "internalType": "bool",
          "name": "",
          "type": "bool"
        }
      ],
      "stateMutability": "view",
      "type": "function"
    },
    {
      "inputs": [],
      "name": "totalSupply",
      "outputs": [
        {
          "internalType": "uint256",
          "name": "",
          "type": "uint256"
        }
      ],
      "stateMutability": "view",
      "type": "function"
    },
    {
      "inputs": [
        {
          "internalType": "address",
          "name": "from",
          "type": "address"
        },
        {
          "internalType": "address",
          "name": "to",
          "type": "address"
        },
        {
          "internalType": "uint256",
          "name": "amount",
          "type": "uint256"
        },
        {
          "internalType": "bool",
          "name": "force",
          "type": "bool"
        },
        {
          "internalType": "bytes",
          "name": "data",
          "type": "bytes"
        }
      ],
      "name": "transfer",
      "outputs": [],
      "stateMutability": "nonpayable",
      "type": "function"
    },
    {
      "inputs": [
        {
          "internalType": "address[]",
          "name": "from",
          "type": "address[]"
        },
        {
          "internalType": "address[]",
          "name": "to",
          "type": "address[]"
        },
        {
          "internalType": "uint256[]",
          "name": "amount",
          "type": "uint256[]"
        },
        {
          "internalType": "bool",
          "name": "force",
          "type": "bool"
        },
        {
          "internalType": "bytes[]",
          "name": "data",
          "type": "bytes[]"
        }
      ],
      "name": "transferBatch",
      "outputs": [],
      "stateMutability": "nonpayable",
      "type": "function"
    },
    {
      "inputs": [
        {
          "internalType": "address",
          "name": "newOwner",
          "type": "address"
        }
      ],
      "name": "transferOwnership",
      "outputs": [],
      "stateMutability": "nonpayable",
      "type": "function"
    },
    {
      "inputs": [
        {
          "internalType": "address",
          "name": "_to",
          "type": "address"
        },
        {
          "internalType": "uint256",
          "name": "_amount",
          "type": "uint256"
        }
      ],
      "name": "mint",
      "outputs": [],
      "stateMutability": "nonpayable",
      "type": "function"
    },
    {
      "inputs": [
        {
          "internalType": "address",
          "name": "_to",
          "type": "address"
        },
        {
          "internalType": "uint256",
          "name": "_amount",
          "type": "uint256"
        }
      ],
      "name": "burnFrom",
      "outputs": [],
      "stateMutability": "nonpayable",
      "type": "function"
    }
  ],
  "bytecode": "0x60806040523480156200001157600080fd5b506040518060400160405280600c81526020017f53706163654f7a546f6b656e00000000000000000000000000000000000000008152506040518060400160405280600381526020017f5350540000000000000000000000000000000000000000000000000000000000815250336001838383806200009b816200020760201b62000c161760201c565b506200010b7feafec4d89fa9619884b60000a4d96624a38f7ac2d8d9a604ecf07c12c77e480c60001b6040518060400160405280600481526020017fa4d96624000000000000000000000000000000000000000000000000000000008152506200030f60201b62000d151760201c565b620001457fdeba1e292f8ba88238e10ab3c7f88bd4be4fac56cad5194b6ecceaf653468af160001b846200030f60201b62000d151760201c565b6200017f7f2f0a68ab07768e01943a599e73362a0e17a63a72e94dd2e384d2c1d4db93275660001b836200030f60201b62000d151760201c565b50505080600260006101000a81548160ff02191690831515021790555050505050620001c733620f42406001604051806020016040528060008152506200036a60201b60201c565b6200020173a3b38051bf77067fccb02d83ecef9cce27c81a31614e206001604051806020016040528060008152506200036a60201b60201c565b62000fe0565b62000217620004f160201b60201c565b73ffffffffffffffffffffffffffffffffffffffff168173ffffffffffffffffffffffffffffffffffffffff16146200030c5760008060009054906101000a900473ffffffffffffffffffffffffffffffffffffffff169050816000806101000a81548173ffffffffffffffffffffffffffffffffffffffff021916908373ffffffffffffffffffffffffffffffffffffffff1602179055508173ffffffffffffffffffffffffffffffffffffffff168173ffffffffffffffffffffffffffffffffffffffff167f8be0079c531659141344cd1fd0a4f28419497f9722a3daafe3b4186f6b6457e060405160405180910390a3505b50565b8060016000848152602001908152602001600020908051906020019062000338929190620008ae565b50817fcdf4e344c0d23d4cdd0474039d176c55b19d531070dbe17856bfb993a5b5720b60405160405180910390a25050565b600073ffffffffffffffffffffffffffffffffffffffff168473ffffffffffffffffffffffffffffffffffffffff1603620003d1576040517fd2d5ec3000000000000000000000000000000000000000000000000000000000815260040160405180910390fd5b6000620003e36200051a60201b60201c565b9050620003f9600086866200052260201b60201c565b83600460008773ffffffffffffffffffffffffffffffffffffffff1673ffffffffffffffffffffffffffffffffffffffff16815260200190815260200160002060008282546200044a919062000997565b925050819055508473ffffffffffffffffffffffffffffffffffffffff16600073ffffffffffffffffffffffffffffffffffffffff168273ffffffffffffffffffffffffffffffffffffffff167f3997e418d2cef0b3b0e907b1e39605c3f7d32dbd061e82ea5b4a770d46a160a6878787604051620004cc9392919062000ac6565b60405180910390a4620004ea600086868686620005c960201b60201c565b5050505050565b60008060009054906101000a900473ffffffffffffffffffffffffffffffffffffffff16905090565b600033905090565b600073ffffffffffffffffffffffffffffffffffffffff168373ffffffffffffffffffffffffffffffffffffffff1603620005735780600360008282546200056b919062000997565b925050819055505b600073ffffffffffffffffffffffffffffffffffffffff168273ffffffffffffffffffffffffffffffffffffffff1603620005c4578060036000828254620005bc919062000b0a565b925050819055505b505050565b620005e784636bb56a1460e01b6200077860201b62000d6e1760201c565b15620006cc5760008585858460405160200162000608949392919062000c30565b60405160208183030381529060405290508473ffffffffffffffffffffffffffffffffffffffff16636bb56a147fdbe2c314e1aee2970c72666f2ebe8933a8575263ea71e5ff6a9178e95d47a26f60001b836040518363ffffffff1660e01b81526004016200067992919062000c9d565b6000604051808303816000875af115801562000699573d6000803e3d6000fd5b505050506040513d6000823e3d601f19601f82011682018060405250810190620006c4919062000e27565b505062000771565b81620007705760008473ffffffffffffffffffffffffffffffffffffffff163b146200073157836040517fa608fbb600000000000000000000000000000000000000000000000000000000815260040162000728919062000e89565b60405180910390fd5b836040517f26c247f400000000000000000000000000000000000000000000000000000000815260040162000767919062000e89565b60405180910390fd5b5b5050505050565b6000806301ffc9a760e01b8360405160240162000796919062000ee3565b604051602081830303815290604052907bffffffffffffffffffffffffffffffffffffffffffffffffffffffff19166020820180517bffffffffffffffffffffffffffffffffffffffffffffffffffffffff838183161783525050505090506000808573ffffffffffffffffffffffffffffffffffffffff166175308460405162000822919062000f00565b6000604051808303818686fa925050503d806000811462000860576040519150601f19603f3d011682016040523d82523d6000602084013e62000865565b606091505b5091509150602081511015620008825760009350505050620008a8565b818015620008a2575080806020019051810190620008a1919062000f4a565b5b93505050505b92915050565b828054620008bc9062000fab565b90600052602060002090601f016020900481019282620008e057600085556200092c565b82601f10620008fb57805160ff19168380011785556200092c565b828001600101855582156200092c579182015b828111156200092b5782518255916020019190600101906200090e565b5b5090506200093b91906200093f565b5090565b5b808211156200095a57600081600090555060010162000940565b5090565b6000819050919050565b7f4e487b7100000000000000000000000000000000000000000000000000000000600052601160045260246000fd5b6000620009a4826200095e565b9150620009b1836200095e565b9250827fffffffffffffffffffffffffffffffffffffffffffffffffffffffffffffffff03821115620009e957620009e862000968565b5b828201905092915050565b620009ff816200095e565b82525050565b60008115159050919050565b62000a1c8162000a05565b82525050565b600081519050919050565b600082825260208201905092915050565b60005b8381101562000a5e57808201518184015260208101905062000a41565b8381111562000a6e576000848401525b50505050565b6000601f19601f8301169050919050565b600062000a928262000a22565b62000a9e818562000a2d565b935062000ab081856020860162000a3e565b62000abb8162000a74565b840191505092915050565b600060608201905062000add6000830186620009f4565b62000aec602083018562000a11565b818103604083015262000b00818462000a85565b9050949350505050565b600062000b17826200095e565b915062000b24836200095e565b92508282101562000b3a5762000b3962000968565b5b828203905092915050565b600073ffffffffffffffffffffffffffffffffffffffff82169050919050565b600062000b728262000b45565b9050919050565b60008160601b9050919050565b600062000b938262000b79565b9050919050565b600062000ba78262000b86565b9050919050565b62000bc362000bbd8262000b65565b62000b9a565b82525050565b6000819050919050565b62000be862000be2826200095e565b62000bc9565b82525050565b600081905092915050565b600062000c068262000a22565b62000c12818562000bee565b935062000c2481856020860162000a3e565b80840191505092915050565b600062000c3e828762000bae565b60148201915062000c50828662000bae565b60148201915062000c62828562000bd3565b60208201915062000c74828462000bf9565b915081905095945050505050565b6000819050919050565b62000c978162000c82565b82525050565b600060408201905062000cb4600083018562000c8c565b818103602083015262000cc8818462000a85565b90509392505050565b6000604051905090565b600080fd5b600080fd5b600080fd5b600080fd5b7f4e487b7100000000000000000000000000000000000000000000000000000000600052604160045260246000fd5b62000d298262000a74565b810181811067ffffffffffffffff8211171562000d4b5762000d4a62000cef565b5b80604052505050565b600062000d6062000cd1565b905062000d6e828262000d1e565b919050565b600067ffffffffffffffff82111562000d915762000d9062000cef565b5b62000d9c8262000a74565b9050602081019050919050565b600062000dc062000dba8462000d73565b62000d54565b90508281526020810184848401111562000ddf5762000dde62000cea565b5b62000dec84828562000a3e565b509392505050565b600082601f83011262000e0c5762000e0b62000ce5565b5b815162000e1e84826020860162000da9565b91505092915050565b60006020828403121562000e405762000e3f62000cdb565b5b600082015167ffffffffffffffff81111562000e615762000e6062000ce0565b5b62000e6f8482850162000df4565b91505092915050565b62000e838162000b65565b82525050565b600060208201905062000ea0600083018462000e78565b92915050565b60007fffffffff0000000000000000000000000000000000000000000000000000000082169050919050565b62000edd8162000ea6565b82525050565b600060208201905062000efa600083018462000ed2565b92915050565b600062000f0e828462000bf9565b915081905092915050565b62000f248162000a05565b811462000f3057600080fd5b50565b60008151905062000f448162000f19565b92915050565b60006020828403121562000f635762000f6262000cdb565b5b600062000f738482850162000f33565b91505092915050565b7f4e487b7100000000000000000000000000000000000000000000000000000000600052602260045260246000fd5b6000600282049050600182168062000fc457607f821691505b60208210810362000fda5762000fd962000f7c565b5b50919050565b6132388062000ff06000396000f3fe608060405234801561001057600080fd5b50600436106101165760003560e01c8063715018a6116100a25780638da5cb5b116100715780638da5cb5b146102c9578063a8a34e0a146102e7578063d95b637114610303578063f2fde38b14610333578063fad8b32a1461034f57610116565b8063715018a61461026b578063760d9bba1461027557806379cc6790146102915780637f23690c146102ad57610116565b806340c10f19116100e957806340c10f19146101a357806347980aa3146101bf5780634e3e6e9c146101db57806354f6127f1461020b57806370a082311461023b57610116565b806301ffc9a71461011b57806314a6e2931461014b57806318160ddd14610167578063313ce56714610185575b600080fd5b61013560048036038101906101309190611ef6565b61036b565b6040516101429190611f3e565b60405180910390f35b6101656004803603810190610160919061227e565b6103cc565b005b61016f610477565b60405161017c919061230f565b60405180910390f35b61018d610481565b60405161019a919061230f565b60405180910390f35b6101bd60048036038101906101b891906123b4565b6104a9565b005b6101d960048036038101906101d491906123b4565b6105f0565b005b6101f560048036038101906101f091906123f4565b610606565b6040516102029190612587565b60405180910390f35b610225600480360381019061022091906125a9565b6106bc565b6040516102329190612620565b60405180910390f35b61025560048036038101906102509190612642565b6106ce565b604051610262919061230f565b60405180910390f35b610273610717565b005b61028f600480360381019061028a919061269b565b61072b565b005b6102ab60048036038101906102a691906123b4565b610863565b005b6102c760048036038101906102c29190612732565b610949565b005b6102d161095f565b6040516102de919061279d565b60405180910390f35b61030160048036038101906102fc919061293e565b610988565b005b61031d60048036038101906103189190612a29565b610a7b565b60405161032a919061230f565b60405180910390f35b61034d60048036038101906103489190612642565b610b7d565b005b61036960048036038101906103649190612642565b610c00565b005b600063e33f65c360e01b7bffffffffffffffffffffffffffffffffffffffffffffffffffffffff1916827bffffffffffffffffffffffffffffffffffffffffffffffffffffffff191614806103c557506103c482610e99565b5b9050919050565b6103d4610efa565b8051825114610418576040517f08c379a000000000000000000000000000000000000000000000000000000000815260040161040f90612aec565b60405180910390fd5b60005b82518110156104725761046283828151811061043a57610439612b0c565b5b602002602001015183838151811061045557610454612b0c565b5b6020026020010151610f71565b61046b81611037565b905061041b565b505050565b6000600354905090565b6000600260009054906101000a900460ff1661049e5760126104a1565b60005b60ff16905090565b600073ffffffffffffffffffffffffffffffffffffffff168273ffffffffffffffffffffffffffffffffffffffff1603610518576040517f08c379a000000000000000000000000000000000000000000000000000000000815260040161050f90612b87565b60405180910390fd5b6000811161055b576040517f08c379a000000000000000000000000000000000000000000000000000000000815260040161055290612bf3565b60405180910390fd5b61056361095f565b73ffffffffffffffffffffffffffffffffffffffff163373ffffffffffffffffffffffffffffffffffffffff16146105d0576040517f08c379a00000000000000000000000000000000000000000000000000000000081526004016105c790612c5f565b60405180910390fd5b6105ec8282600160405180602001604052806000815250611044565b5050565b6106026105fb6111ae565b83836111b6565b5050565b6060815167ffffffffffffffff81111561062357610622611f6f565b5b60405190808252806020026020018201604052801561065657816020015b60608152602001906001900390816106415790505b50905060005b82518110156106b65761068883828151811061067b5761067a612b0c565b5b602002602001015161139a565b82828151811061069b5761069a612b0c565b5b60200260200101819052506106af81611037565b905061065c565b50919050565b60606106c78261139a565b9050919050565b6000600460008373ffffffffffffffffffffffffffffffffffffffff1673ffffffffffffffffffffffffffffffffffffffff168152602001908152602001600020549050919050565b61071f610efa565b6107296000610c16565b565b60006107356111ae565b90508573ffffffffffffffffffffffffffffffffffffffff168173ffffffffffffffffffffffffffffffffffffffff161461084e576000600560008873ffffffffffffffffffffffffffffffffffffffff1673ffffffffffffffffffffffffffffffffffffffff16815260200190815260200160002060008373ffffffffffffffffffffffffffffffffffffffff1673ffffffffffffffffffffffffffffffffffffffff1681526020019081526020016000205490508085111561083657868183876040517ff3a6b69100000000000000000000000000000000000000000000000000000000815260040161082d9493929190612c7f565b60405180910390fd5b61084c878387846108479190612cf3565b6111b6565b505b61085b868686868661143f565b505050505050565b600073ffffffffffffffffffffffffffffffffffffffff168273ffffffffffffffffffffffffffffffffffffffff16036108d2576040517f08c379a00000000000000000000000000000000000000000000000000000000081526004016108c990612b87565b60405180910390fd5b60008111610915576040517f08c379a000000000000000000000000000000000000000000000000000000000815260040161090c90612bf3565b60405180910390fd5b6109208230836111b6565b61092b8233836111b6565b6109458282604051806020016040528060008152506116cf565b5050565b610951610efa565b61095b8282610f71565b5050565b60008060009054906101000a900473ffffffffffffffffffffffffffffffffffffffff16905090565b8351855114158061099b57508251855114155b806109a857508051855114155b156109df576040517f263eee8d00000000000000000000000000000000000000000000000000000000815260040160405180910390fd5b60005b8551811015610a7357610a60868281518110610a0157610a00612b0c565b5b6020026020010151868381518110610a1c57610a1b612b0c565b5b6020026020010151868481518110610a3757610a36612b0c565b5b602002602001015186868681518110610a5357610a52612b0c565b5b602002602001015161072b565b8080610a6b90612d27565b9150506109e2565b505050505050565b60008273ffffffffffffffffffffffffffffffffffffffff168273ffffffffffffffffffffffffffffffffffffffff1603610af757600460008373ffffffffffffffffffffffffffffffffffffffff1673ffffffffffffffffffffffffffffffffffffffff168152602001908152602001600020549050610b77565b600560008373ffffffffffffffffffffffffffffffffffffffff1673ffffffffffffffffffffffffffffffffffffffff16815260200190815260200160002060008473ffffffffffffffffffffffffffffffffffffffff1673ffffffffffffffffffffffffffffffffffffffff1681526020019081526020016000205490505b92915050565b610b85610efa565b600073ffffffffffffffffffffffffffffffffffffffff168173ffffffffffffffffffffffffffffffffffffffff1603610bf4576040517f08c379a0000000000000000000000000000000000000000000000000000000008152600401610beb90612de1565b60405180910390fd5b610bfd81610c16565b50565b610c13610c0b6111ae565b8260006111b6565b50565b610c1e61095f565b73ffffffffffffffffffffffffffffffffffffffff168173ffffffffffffffffffffffffffffffffffffffff1614610d125760008060009054906101000a900473ffffffffffffffffffffffffffffffffffffffff169050816000806101000a81548173ffffffffffffffffffffffffffffffffffffffff021916908373ffffffffffffffffffffffffffffffffffffffff1602179055508173ffffffffffffffffffffffffffffffffffffffff168173ffffffffffffffffffffffffffffffffffffffff167f8be0079c531659141344cd1fd0a4f28419497f9722a3daafe3b4186f6b6457e060405160405180910390a3505b50565b80600160008481526020019081526020016000209080519060200190610d3c929190611de7565b50817fcdf4e344c0d23d4cdd0474039d176c55b19d531070dbe17856bfb993a5b5720b60405160405180910390a25050565b6000806301ffc9a760e01b83604051602401610d8a9190612e10565b604051602081830303815290604052907bffffffffffffffffffffffffffffffffffffffffffffffffffffffff19166020820180517bffffffffffffffffffffffffffffffffffffffffffffffffffffffff838183161783525050505090506000808573ffffffffffffffffffffffffffffffffffffffff1661753084604051610e149190612e67565b6000604051808303818686fa925050503d8060008114610e50576040519150601f19603f3d011682016040523d82523d6000602084013e610e55565b606091505b5091509150602081511015610e705760009350505050610e93565b818015610e8d575080806020019051810190610e8c9190612e93565b5b93505050505b92915050565b600063714df77c60e01b7bffffffffffffffffffffffffffffffffffffffffffffffffffffffff1916827bffffffffffffffffffffffffffffffffffffffffffffffffffffffff19161480610ef35750610ef282611a5a565b5b9050919050565b3373ffffffffffffffffffffffffffffffffffffffff16610f1961095f565b73ffffffffffffffffffffffffffffffffffffffff1614610f6f576040517f08c379a0000000000000000000000000000000000000000000000000000000008152600401610f6690612f0c565b60405180910390fd5b565b7fdeba1e292f8ba88238e10ab3c7f88bd4be4fac56cad5194b6ecceaf653468af160001b8203610fcd576040517f85c169bd00000000000000000000000000000000000000000000000000000000815260040160405180910390fd5b7f2f0a68ab07768e01943a599e73362a0e17a63a72e94dd2e384d2c1d4db93275660001b8203611029576040517f76755b3800000000000000000000000000000000000000000000000000000000815260040160405180910390fd5b6110338282610d15565b5050565b6000600182019050919050565b600073ffffffffffffffffffffffffffffffffffffffff168473ffffffffffffffffffffffffffffffffffffffff16036110aa576040517fd2d5ec3000000000000000000000000000000000000000000000000000000000815260040160405180910390fd5b60006110b46111ae565b90506110c260008686611ac4565b83600460008773ffffffffffffffffffffffffffffffffffffffff1673ffffffffffffffffffffffffffffffffffffffff16815260200190815260200160002060008282546111119190612f2c565b925050819055508473ffffffffffffffffffffffffffffffffffffffff16600073ffffffffffffffffffffffffffffffffffffffff168273ffffffffffffffffffffffffffffffffffffffff167f3997e418d2cef0b3b0e907b1e39605c3f7d32dbd061e82ea5b4a770d46a160a687878760405161119193929190612f82565b60405180910390a46111a7600086868686611b65565b5050505050565b600033905090565b600073ffffffffffffffffffffffffffffffffffffffff168273ffffffffffffffffffffffffffffffffffffffff160361121c576040517f6355e76600000000000000000000000000000000000000000000000000000000815260040160405180910390fd5b8273ffffffffffffffffffffffffffffffffffffffff168273ffffffffffffffffffffffffffffffffffffffff1603156113955780600560008573ffffffffffffffffffffffffffffffffffffffff1673ffffffffffffffffffffffffffffffffffffffff16815260200190815260200160002060008473ffffffffffffffffffffffffffffffffffffffff1673ffffffffffffffffffffffffffffffffffffffff168152602001908152602001600020819055506000811461133957808373ffffffffffffffffffffffffffffffffffffffff168373ffffffffffffffffffffffffffffffffffffffff167fd66aff874162a96578e919097b6f6d153dfd89a5cec41bb331fdb0c4aec16e2c60405160405180910390a4611394565b8273ffffffffffffffffffffffffffffffffffffffff168273ffffffffffffffffffffffffffffffffffffffff167f50546e66e5f44d728365dc3908c63bc5cfeeab470722c1677e3073a6ac294aa160405160405180910390a35b5b505050565b60606001600083815260200190815260200160002080546113ba90612fef565b80601f01602080910402602001604051908101604052809291908181526020018280546113e690612fef565b80156114335780601f1061140857610100808354040283529160200191611433565b820191906000526020600020905b81548152906001019060200180831161141657829003601f168201915b50505050509050919050565b600073ffffffffffffffffffffffffffffffffffffffff168573ffffffffffffffffffffffffffffffffffffffff1614806114a65750600073ffffffffffffffffffffffffffffffffffffffff168473ffffffffffffffffffffffffffffffffffffffff16145b156114dd576040517fd2d5ec3000000000000000000000000000000000000000000000000000000000815260040160405180910390fd5b6000600460008773ffffffffffffffffffffffffffffffffffffffff1673ffffffffffffffffffffffffffffffffffffffff1681526020019081526020016000205490508084111561156a578086856040517f08d4794900000000000000000000000000000000000000000000000000000000815260040161156193929190613020565b60405180910390fd5b60006115746111ae565b9050611581878787611ac4565b84600460008973ffffffffffffffffffffffffffffffffffffffff1673ffffffffffffffffffffffffffffffffffffffff16815260200190815260200160002060008282546115d09190612cf3565b9250508190555084600460008873ffffffffffffffffffffffffffffffffffffffff1673ffffffffffffffffffffffffffffffffffffffff16815260200190815260200160002060008282546116269190612f2c565b925050819055508573ffffffffffffffffffffffffffffffffffffffff168773ffffffffffffffffffffffffffffffffffffffff168273ffffffffffffffffffffffffffffffffffffffff167f3997e418d2cef0b3b0e907b1e39605c3f7d32dbd061e82ea5b4a770d46a160a68888886040516116a593929190612f82565b60405180910390a46116b987878786611cf8565b6116c68787878787611b65565b50505050505050565b600073ffffffffffffffffffffffffffffffffffffffff168373ffffffffffffffffffffffffffffffffffffffff1603611735576040517fd2d5ec3000000000000000000000000000000000000000000000000000000000815260040160405180910390fd5b6000600460008573ffffffffffffffffffffffffffffffffffffffff1673ffffffffffffffffffffffffffffffffffffffff168152602001908152602001600020549050808311156117c2578084846040517f08d479490000000000000000000000000000000000000000000000000000000081526004016117b993929190613020565b60405180910390fd5b60006117cc6111ae565b90508473ffffffffffffffffffffffffffffffffffffffff168173ffffffffffffffffffffffffffffffffffffffff1614611962576000600560008773ffffffffffffffffffffffffffffffffffffffff1673ffffffffffffffffffffffffffffffffffffffff16815260200190815260200160002060008373ffffffffffffffffffffffffffffffffffffffff1673ffffffffffffffffffffffffffffffffffffffff168152602001908152602001600020549050808511156118cd57858183876040517ff3a6b6910000000000000000000000000000000000000000000000000000000081526004016118c49493929190612c7f565b60405180910390fd5b84600560008873ffffffffffffffffffffffffffffffffffffffff1673ffffffffffffffffffffffffffffffffffffffff16815260200190815260200160002060008473ffffffffffffffffffffffffffffffffffffffff1673ffffffffffffffffffffffffffffffffffffffff16815260200190815260200160002060008282546119599190612cf3565b92505081905550505b61196e85600086611ac4565b83600460008773ffffffffffffffffffffffffffffffffffffffff1673ffffffffffffffffffffffffffffffffffffffff16815260200190815260200160002060008282546119bd9190612cf3565b92505081905550600073ffffffffffffffffffffffffffffffffffffffff168573ffffffffffffffffffffffffffffffffffffffff168273ffffffffffffffffffffffffffffffffffffffff167f3997e418d2cef0b3b0e907b1e39605c3f7d32dbd061e82ea5b4a770d46a160a687600088604051611a3e93929190612f82565b60405180910390a4611a538560008686611cf8565b5050505050565b60007f01ffc9a7000000000000000000000000000000000000000000000000000000007bffffffffffffffffffffffffffffffffffffffffffffffffffffffff1916827bffffffffffffffffffffffffffffffffffffffffffffffffffffffff1916149050919050565b600073ffffffffffffffffffffffffffffffffffffffff168373ffffffffffffffffffffffffffffffffffffffff1603611b12578060036000828254611b0a9190612f2c565b925050819055505b600073ffffffffffffffffffffffffffffffffffffffff168273ffffffffffffffffffffffffffffffffffffffff1603611b60578060036000828254611b589190612cf3565b925050819055505b505050565b611b7684636bb56a1460e01b610d6e565b15611c5257600085858584604051602001611b9494939291906130c0565b60405160208183030381529060405290508473ffffffffffffffffffffffffffffffffffffffff16636bb56a147fdbe2c314e1aee2970c72666f2ebe8933a8575263ea71e5ff6a9178e95d47a26f60001b836040518363ffffffff1660e01b8152600401611c03929190613119565b6000604051808303816000875af1158015611c22573d6000803e3d6000fd5b505050506040513d6000823e3d601f19601f82011682018060405250810190611c4b91906131b9565b5050611cf1565b81611cf05760008473ffffffffffffffffffffffffffffffffffffffff163b14611cb357836040517fa608fbb6000000000000000000000000000000000000000000000000000000008152600401611caa919061279d565b60405180910390fd5b836040517f26c247f4000000000000000000000000000000000000000000000000000000008152600401611ce7919061279d565b60405180910390fd5b5b5050505050565b611d0984636bb56a1460e01b610d6e565b15611de157600084848484604051602001611d2794939291906130c0565b60405160208183030381529060405290508473ffffffffffffffffffffffffffffffffffffffff16636bb56a147f40b8bec57d7b5ff0dbd9e9acd0a47dfeb0101e1a203766f5ccab00445fbf39e960001b836040518363ffffffff1660e01b8152600401611d96929190613119565b6000604051808303816000875af1158015611db5573d6000803e3d6000fd5b505050506040513d6000823e3d601f19601f82011682018060405250810190611dde91906131b9565b50505b50505050565b828054611df390612fef565b90600052602060002090601f016020900481019282611e155760008555611e5c565b82601f10611e2e57805160ff1916838001178555611e5c565b82800160010185558215611e5c579182015b82811115611e5b578251825591602001919060010190611e40565b5b509050611e699190611e6d565b5090565b5b80821115611e86576000816000905550600101611e6e565b5090565b6000604051905090565b600080fd5b600080fd5b60007fffffffff0000000000000000000000000000000000000000000000000000000082169050919050565b611ed381611e9e565b8114611ede57600080fd5b50565b600081359050611ef081611eca565b92915050565b600060208284031215611f0c57611f0b611e94565b5b6000611f1a84828501611ee1565b91505092915050565b60008115159050919050565b611f3881611f23565b82525050565b6000602082019050611f536000830184611f2f565b92915050565b600080fd5b6000601f19601f8301169050919050565b7f4e487b7100000000000000000000000000000000000000000000000000000000600052604160045260246000fd5b611fa782611f5e565b810181811067ffffffffffffffff82111715611fc657611fc5611f6f565b5b80604052505050565b6000611fd9611e8a565b9050611fe58282611f9e565b919050565b600067ffffffffffffffff82111561200557612004611f6f565b5b602082029050602081019050919050565b600080fd5b6000819050919050565b61202e8161201b565b811461203957600080fd5b50565b60008135905061204b81612025565b92915050565b600061206461205f84611fea565b611fcf565b9050808382526020820190506020840283018581111561208757612086612016565b5b835b818110156120b0578061209c888261203c565b845260208401935050602081019050612089565b5050509392505050565b600082601f8301126120cf576120ce611f59565b5b81356120df848260208601612051565b91505092915050565b600067ffffffffffffffff82111561210357612102611f6f565b5b602082029050602081019050919050565b600080fd5b600067ffffffffffffffff82111561213457612133611f6f565b5b61213d82611f5e565b9050602081019050919050565b82818337600083830152505050565b600061216c61216784612119565b611fcf565b90508281526020810184848401111561218857612187612114565b5b61219384828561214a565b509392505050565b600082601f8301126121b0576121af611f59565b5b81356121c0848260208601612159565b91505092915050565b60006121dc6121d7846120e8565b611fcf565b905080838252602082019050602084028301858111156121ff576121fe612016565b5b835b8181101561224657803567ffffffffffffffff81111561222457612223611f59565b5b808601612231898261219b565b85526020850194505050602081019050612201565b5050509392505050565b600082601f83011261226557612264611f59565b5b81356122758482602086016121c9565b91505092915050565b6000806040838503121561229557612294611e94565b5b600083013567ffffffffffffffff8111156122b3576122b2611e99565b5b6122bf858286016120ba565b925050602083013567ffffffffffffffff8111156122e0576122df611e99565b5b6122ec85828601612250565b9150509250929050565b6000819050919050565b612309816122f6565b82525050565b60006020820190506123246000830184612300565b92915050565b600073ffffffffffffffffffffffffffffffffffffffff82169050919050565b60006123558261232a565b9050919050565b6123658161234a565b811461237057600080fd5b50565b6000813590506123828161235c565b92915050565b612391816122f6565b811461239c57600080fd5b50565b6000813590506123ae81612388565b92915050565b600080604083850312156123cb576123ca611e94565b5b60006123d985828601612373565b92505060206123ea8582860161239f565b9150509250929050565b60006020828403121561240a57612409611e94565b5b600082013567ffffffffffffffff81111561242857612427611e99565b5b612434848285016120ba565b91505092915050565b600081519050919050565b600082825260208201905092915050565b6000819050602082019050919050565b600081519050919050565b600082825260208201905092915050565b60005b838110156124a3578082015181840152602081019050612488565b838111156124b2576000848401525b50505050565b60006124c382612469565b6124cd8185612474565b93506124dd818560208601612485565b6124e681611f5e565b840191505092915050565b60006124fd83836124b8565b905092915050565b6000602082019050919050565b600061251d8261243d565b6125278185612448565b93508360208202850161253985612459565b8060005b85811015612575578484038952815161255685826124f1565b945061256183612505565b925060208a0199505060018101905061253d565b50829750879550505050505092915050565b600060208201905081810360008301526125a18184612512565b905092915050565b6000602082840312156125bf576125be611e94565b5b60006125cd8482850161203c565b91505092915050565b600082825260208201905092915050565b60006125f282612469565b6125fc81856125d6565b935061260c818560208601612485565b61261581611f5e565b840191505092915050565b6000602082019050818103600083015261263a81846125e7565b905092915050565b60006020828403121561265857612657611e94565b5b600061266684828501612373565b91505092915050565b61267881611f23565b811461268357600080fd5b50565b6000813590506126958161266f565b92915050565b600080600080600060a086880312156126b7576126b6611e94565b5b60006126c588828901612373565b95505060206126d688828901612373565b94505060406126e78882890161239f565b93505060606126f888828901612686565b925050608086013567ffffffffffffffff81111561271957612718611e99565b5b6127258882890161219b565b9150509295509295909350565b6000806040838503121561274957612748611e94565b5b60006127578582860161203c565b925050602083013567ffffffffffffffff81111561277857612777611e99565b5b6127848582860161219b565b9150509250929050565b6127978161234a565b82525050565b60006020820190506127b2600083018461278e565b92915050565b600067ffffffffffffffff8211156127d3576127d2611f6f565b5b602082029050602081019050919050565b60006127f76127f2846127b8565b611fcf565b9050808382526020820190506020840283018581111561281a57612819612016565b5b835b81811015612843578061282f8882612373565b84526020840193505060208101905061281c565b5050509392505050565b600082601f83011261286257612861611f59565b5b81356128728482602086016127e4565b91505092915050565b600067ffffffffffffffff82111561289657612895611f6f565b5b602082029050602081019050919050565b60006128ba6128b58461287b565b611fcf565b905080838252602082019050602084028301858111156128dd576128dc612016565b5b835b8181101561290657806128f2888261239f565b8452602084019350506020810190506128df565b5050509392505050565b600082601f83011261292557612924611f59565b5b81356129358482602086016128a7565b91505092915050565b600080600080600060a0868803121561295a57612959611e94565b5b600086013567ffffffffffffffff81111561297857612977611e99565b5b6129848882890161284d565b955050602086013567ffffffffffffffff8111156129a5576129a4611e99565b5b6129b18882890161284d565b945050604086013567ffffffffffffffff8111156129d2576129d1611e99565b5b6129de88828901612910565b93505060606129ef88828901612686565b925050608086013567ffffffffffffffff811115612a1057612a0f611e99565b5b612a1c88828901612250565b9150509295509295909350565b60008060408385031215612a4057612a3f611e94565b5b6000612a4e85828601612373565b9250506020612a5f85828601612373565b9150509250929050565b600082825260208201905092915050565b7f4b657973206c656e677468206e6f7420657175616c20746f2076616c7565732060008201527f6c656e6774680000000000000000000000000000000000000000000000000000602082015250565b6000612ad6602683612a69565b9150612ae182612a7a565b604082019050919050565b60006020820190508181036000830152612b0581612ac9565b9050919050565b7f4e487b7100000000000000000000000000000000000000000000000000000000600052603260045260246000fd5b7f746f206164647265737320697320696e76616c69640000000000000000000000600082015250565b6000612b71601583612a69565b9150612b7c82612b3b565b602082019050919050565b60006020820190508181036000830152612ba081612b64565b9050919050565b7f616d6f756e7420697320696e76616c6964000000000000000000000000000000600082015250565b6000612bdd601183612a69565b9150612be882612ba7565b602082019050919050565b60006020820190508181036000830152612c0c81612bd0565b9050919050565b7f6f6e6c7920746865206f776e65722063616e206d696e74000000000000000000600082015250565b6000612c49601783612a69565b9150612c5482612c13565b602082019050919050565b60006020820190508181036000830152612c7881612c3c565b9050919050565b6000608082019050612c94600083018761278e565b612ca16020830186612300565b612cae604083018561278e565b612cbb6060830184612300565b95945050505050565b7f4e487b7100000000000000000000000000000000000000000000000000000000600052601160045260246000fd5b6000612cfe826122f6565b9150612d09836122f6565b925082821015612d1c57612d1b612cc4565b5b828203905092915050565b6000612d32826122f6565b91507fffffffffffffffffffffffffffffffffffffffffffffffffffffffffffffffff8203612d6457612d63612cc4565b5b600182019050919050565b7f4f776e61626c653a206e6577206f776e657220697320746865207a65726f206160008201527f6464726573730000000000000000000000000000000000000000000000000000602082015250565b6000612dcb602683612a69565b9150612dd682612d6f565b604082019050919050565b60006020820190508181036000830152612dfa81612dbe565b9050919050565b612e0a81611e9e565b82525050565b6000602082019050612e256000830184612e01565b92915050565b600081905092915050565b6000612e4182612469565b612e4b8185612e2b565b9350612e5b818560208601612485565b80840191505092915050565b6000612e738284612e36565b915081905092915050565b600081519050612e8d8161266f565b92915050565b600060208284031215612ea957612ea8611e94565b5b6000612eb784828501612e7e565b91505092915050565b7f4f776e61626c653a2063616c6c6572206973206e6f7420746865206f776e6572600082015250565b6000612ef6602083612a69565b9150612f0182612ec0565b602082019050919050565b60006020820190508181036000830152612f2581612ee9565b9050919050565b6000612f37826122f6565b9150612f42836122f6565b9250827fffffffffffffffffffffffffffffffffffffffffffffffffffffffffffffffff03821115612f7757612f76612cc4565b5b828201905092915050565b6000606082019050612f976000830186612300565b612fa46020830185611f2f565b8181036040830152612fb681846125e7565b9050949350505050565b7f4e487b7100000000000000000000000000000000000000000000000000000000600052602260045260246000fd5b6000600282049050600182168061300757607f821691505b60208210810361301a57613019612fc0565b5b50919050565b60006060820190506130356000830186612300565b613042602083018561278e565b61304f6040830184612300565b949350505050565b60008160601b9050919050565b600061306f82613057565b9050919050565b600061308182613064565b9050919050565b6130996130948261234a565b613076565b82525050565b6000819050919050565b6130ba6130b5826122f6565b61309f565b82525050565b60006130cc8287613088565b6014820191506130dc8286613088565b6014820191506130ec82856130a9565b6020820191506130fc8284612e36565b915081905095945050505050565b6131138161201b565b82525050565b600060408201905061312e600083018561310a565b818103602083015261314081846125e7565b90509392505050565b600061315c61315784612119565b611fcf565b90508281526020810184848401111561317857613177612114565b5b613183848285612485565b509392505050565b600082601f8301126131a05761319f611f59565b5b81516131b0848260208601613149565b91505092915050565b6000602082840312156131cf576131ce611e94565b5b600082015167ffffffffffffffff8111156131ed576131ec611e99565b5b6131f98482850161318b565b9150509291505056fea2646970667358221220343384220e6233ba129db252a2bb0814d32c25d6e89a46d3ba0b037ffb74ac7b64736f6c634300080d0033",
  "immutableReferences": {},
  "source": "// SPDX-License-Identifier: MIT\n// Tells the Solidity compiler to compile only from v0.8.13 to v0.9.0\npragma solidity ^0.8.13;\n\nimport \"@lukso/lsp-smart-contracts/contracts/LSP7DigitalAsset/LSP7DigitalAsset.sol\";\n\n// This is just a simple example of a coin-like contract.\n// It is not ERC20 compatible and cannot be expected to talk to other\n// coin/token contracts.\n\ncontract SpaceOzToken is LSP7DigitalAsset {\n    constructor() LSP7DigitalAsset(\"SpaceOzToken\", \"SPT\", msg.sender, true) {\n        // Initialize the token-Metadata\n        _mint(msg.sender, 1000000, true, \"\");\n        _mint(\n            address(0xA3B38051Bf77067fcCb02D83eCEF9CcE27c81A31),\n            20000,\n            true,\n            \"\"\n        );\n    }\n\n    function mint(address _to, uint256 _amount) public  {\n        require(_to != address(0), \"to address is invalid\");\n        require(_amount > 0, \"amount is invalid\");\n        require(msg.sender == owner(), \"only the owner can mint\");\n        _mint(_to, _amount, true, \"\");\n    }\n\n    function burnFrom(address _to, uint256 _amount) public {\n        require(_to != address(0), \"to address is invalid\");\n        require(_amount > 0, \"amount is invalid\");\n        _updateOperator(_to, address(this), _amount);\n        _updateOperator(_to, msg.sender, _amount);\n        _burn(_to, _amount, \"\");\n    }\n}\n",
  "sourcePath": "/Users/osfy/Documents/NextJSProjects/spaceoz-lukso/contracts/SpaceOzToken.sol",
  "compiler": {
    "name": "solc",
    "version": "0.8.13+commit.abaa5c0e.Emscripten.clang"
  },
  "schemaVersion": "3.4.1",
  "updatedAt": "2022-08-28T10:41:49.446Z",
  "devdoc": {
    "errors": {
      "LSP4TokenNameNotEditable()": [
        {
          "details": "Reverts when trying to edit the data key `LSP4TokenName` after the digital asset contract has been deployed.      The `LSP4TokenName` data key is located inside the ERC725Y key-value store of the digital asset contract.      It can be set only once inside the constructor/initializer when the digital asset contract is being deployed."
        }
      ],
      "LSP4TokenSymbolNotEditable()": [
        {
          "details": "Reverts when trying to edit the data key `LSP4TokenSymbol` after the digital asset contract has been deployed.      The `LSP4TokenSymbol` data key is located inside the ERC725Y key-value store of the digital asset contract.      It can be set only once inside the constructor/initializer when the digital asset contract is being deployed."
        }
      ]
    },
    "kind": "dev",
    "methods": {
      "authorizeOperator(address,uint256)": {
        "details": "Sets `amount` as the amount of tokens `operator` address has access to from callers tokens. See {isOperatorFor}. Requirements - `operator` cannot be the zero address. Emits an {AuthorizedOperator} event.",
        "params": {
          "amount": "The amount of tokens operator has access to.",
          "operator": "The address to authorize as an operator."
        }
      },
      "balanceOf(address)": {
        "details": "Returns the number of tokens owned by `tokenOwner`.",
        "params": {
          "tokenOwner": "The address to query"
        },
        "returns": {
          "_0": "The number of tokens owned by this address"
        }
      },
      "decimals()": {
        "details": "Returns the number of decimals used to get its user representation If the contract represents a NFT then 0 SHOULD be used, otherwise 18 is the common value NOTE: This information is only used for _display_ purposes: it in no way affects any of the arithmetic of the contract, including {balanceOf} and {transfer}."
      },
      "getData(bytes32)": {
        "params": {
          "dataKey": "The key which value to retrieve"
        },
        "returns": {
          "dataValue": "The data stored at the key"
        }
      },
      "getData(bytes32[])": {
        "params": {
          "dataKeys": "The array of keys which values to retrieve"
        },
        "returns": {
          "dataValues": "The array of data stored at multiple keys"
        }
      },
      "isOperatorFor(address,address)": {
        "details": "Returns amount of tokens `operator` address has access to from `tokenOwner`. Operators can send and burn tokens on behalf of their owners. The tokenOwner is their own operator.",
        "params": {
          "operator": "The address to query operator status for.",
          "tokenOwner": "The token owner."
        },
        "returns": {
          "_0": "The amount of tokens `operator` address has access to from `tokenOwner`."
        }
      },
      "owner()": {
        "details": "Returns the address of the current owner."
      },
      "renounceOwnership()": {
        "details": "Leaves the contract without owner. It will not be possible to call `onlyOwner` functions anymore. Can only be called by the current owner. NOTE: Renouncing ownership will leave the contract without an owner, thereby removing any functionality that is only available to the owner."
      },
      "revokeOperator(address)": {
        "details": "Removes `operator` address as an operator of callers tokens. See {isOperatorFor}. Requirements - `operator` cannot be the zero address. Emits a {RevokedOperator} event.",
        "params": {
          "operator": "The address to revoke as an operator."
        }
      },
      "setData(bytes32,bytes)": {
        "params": {
          "dataKey": "The key to retrieve stored value",
          "dataValue": "The value to set SHOULD only be callable by the owner of the contract set via ERC173 Emits a {DataChanged} event."
        }
      },
      "setData(bytes32[],bytes[])": {
        "details": "Sets array of data for multiple given `dataKeys` SHOULD only be callable by the owner of the contract set via ERC173 Emits a {DataChanged} event.",
        "params": {
          "dataKeys": "The array of data keys for values to set",
          "dataValues": "The array of values to set"
        }
      },
      "supportsInterface(bytes4)": {
        "details": "See {IERC165-supportsInterface}."
      },
      "totalSupply()": {
        "details": "Returns the number of existing tokens.",
        "returns": {
          "_0": "The number of existing tokens"
        }
      },
      "transfer(address,address,uint256,bool,bytes)": {
        "details": "Transfers `amount` of tokens from `from` to `to`. The `force` parameter will be used when notifying the token sender and receiver. Requirements: - `from` cannot be the zero address. - `to` cannot be the zero address. - `amount` tokens must be owned by `from`. - If the caller is not `from`, it must be an operator for `from` with access to at least `amount` tokens. Emits a {Transfer} event.",
        "params": {
          "amount": "The amount of tokens to transfer.",
          "data": "Additional data the caller wants included in the emitted event, and sent in the hooks to `from` and `to` addresses.",
          "force": "When set to TRUE, to may be any address but when set to FALSE to must be a contract that supports LSP1 UniversalReceiver",
          "from": "The sending address.",
          "to": "The receiving address."
        }
      },
      "transferBatch(address[],address[],uint256[],bool,bytes[])": {
        "details": "Transfers many tokens based on the list `from`, `to`, `amount`. If any transfer fails the call will revert. Requirements: - `from`, `to`, `amount` lists are the same length. - no values in `from` can be the zero address. - no values in `to` can be the zero address. - each `amount` tokens must be owned by `from`. - If the caller is not `from`, it must be an operator for `from` with access to at least `amount` tokens. Emits {Transfer} events.",
        "params": {
          "amount": "The amount of tokens to transfer.",
          "data": "Additional data the caller wants included in the emitted event, and sent in the hooks to `from` and `to` addresses.",
          "force": "When set to TRUE, to may be any address but when set to FALSE to must be a contract that supports LSP1 UniversalReceiver",
          "from": "The list of sending addresses.",
          "to": "The list of receiving addresses."
        }
      },
      "transferOwnership(address)": {
        "details": "Transfers ownership of the contract to a new account (`newOwner`). Can only be called by the current owner."
      }
    },
    "version": 1
  },
  "userdoc": {
    "events": {
      "DataChanged(bytes32)": {
        "notice": "Emitted when data at a key is changed"
      }
    },
    "kind": "user",
    "methods": {
      "getData(bytes32)": {
        "notice": "Gets singular data at a given `dataKey`"
      },
      "getData(bytes32[])": {
        "notice": "Gets array of data for multiple given keys"
      },
      "setData(bytes32,bytes)": {
        "notice": "Sets singular data for a given `dataKey`"
      }
    },
    "version": 1
  }
}